:1000000000020020BD0300002504000035040000AC
:1000100000000000000000000000000000000000E0
:100020000000000000000000000000006D03000060
:100030000000000000000000450300003D0100003A
:100040003D0100003D0100003D0100003D010000B8
:100050000D0C00003D0100003D0100003D010000CD
:100060003D010000890B00003D0100003D01000042
:100070003D0100003D010000930B00003D01000028
:100080003D0100003D0100003D0100003D01000078
:100090003D0100003D0100003D0100003D01000068
:1000A0003D0100003D0100003D0100003D01000058
:1000B00010B500F083FA10BD7047000070B50C0059
:1000C000060000F069F9094B094A1D682919914297
:1000D00002D8084A914204D20C23012533606D42B4
:1000E00000E0196000F060F9280070BD00020020F7
:1000F000008000203C0B002010B51900100000F01B
:1001000069FA10BD10B51900100000F077FA10BDA3
:100110001323036001204042704713230360012032
:100120004042704713230360012040427047002380
:10013000022203608A425B411800704710B500F04C
:1001400029FA10BD70B500240F4B104E1C60104BE7
:100150003568186800F096F80E4B8000C3582000F0
:100160001B68083B9D420ED0A54204D02A79092A7B
:1001700001D101322A71092201201A710622995EE9
:10018000054A3360118070BD800200208802002083
:1001900054030020900200208402002030B503792F
:1001A000082917D9082B31D804004379184A9B0035
:1001B0009D580834002D04D02D6885609D582C6012
:1001C00000E08460D45001234479124AA3401468AB
:1001D00023431AE0082B19D944790D4BA400E258A7
:1001E000002A07D01568AA4202D10022E25001E09D
:1001F0002C6814604479A2009B58002B06D101336F
:10020000A340044A14689C4323001360017130BD6D
:10021000900200205403002010B5094B1B681A7986
:10022000082A02D95B79834209D900F0C0F8002876
:1002300003D00122034B1A6001E000F079F810BDF1
:10024000880200208002002070B5002400F0A4F88D
:10025000084B094A1B88094D1BB29B009C50084A59
:10026000210013682868013B1360FFF797FF2C609B
:1002700000F05AF884020020D002002088020020FA
:100280008C02002000230122104202D140080133D9
:10029000FAE7180070470000D318032293431F4A5F
:1002A00010B51C1F2260620703D0083B1C001C4BCA
:1002B00023608022231F52041A601A4A043B1860EC
:1002C000043B1A600022043B1A60043B03321A60AC
:1002D000043B013A1A60043B013A1A60043B19607E
:1002E0000632043B1A60043B013A1A60043B013AAF
:1002F0001A60043B013A1A60043B07321A60043B5F
:10030000013A1A60043B013A1A60043B013A1A6050
:100310002000032344385B42036010BD7777777772
:10032000888888884902000000F03AF801DFFEE77B
:100330008021034A490553680B4353607047C04608
:1003400000ED00E0EFF30980EC4685464046494663
:1003500052465B46FFB4704601B46846E546024922
:100360000968086000F002F888020020FFF7EAFE42
:10037000EE46084800680068854601BC8446FFBC1C
:100380008046894692469B46684680F30988F54632
:100390006047000088020020EFF3108072B67047BB
:1003A00062B6EFF31080704780F310887047EFF368
:1003B0000580C0B2704770477047000070B5FFF706
:1003C000FAFF6A46104B11499A4201D902C3FBE772
:1003D00000230F480F49104C1A188A4203D2E558DF
:1003E00004331560F8E700210C4B0D4A934201D20B
:1003F00002C3FBE7FFF7E0FF00F00AF900F032FD6F
:1004000000F09CF970BDC04600000020FEE7FEE74A
:100410000002002080020020502000008002002006
:100420003C0B002010B50249042000F0FBF8C04648
:10043000EE1C00000F49104A104B6846904203D84A
:10044000984201D9002102E0091C8D4601210420B7
:100450007246024202D1EFF3088001E0EFF3098017
:10046000F0B443464C4655465E4678B46B4600F0C1
:1004700007F8C04600020020008000206005002030
:10048000F0B58DB00A92354A0B931268344B0400D4
:1004900003919A4202D0334800F086FD039B002B63
:1004A00003D0314800F080FD24E025002368E7698F
:1004B00004936368A6690593A36824350693E368EB
:1004C00007932369089363690993BB0500D4043D2E
:1004D000264800F069FD079B059A00930499069B46
:1004E000234800F0E5FC00973300099A0899214859
:1004F00000F0DEFC204800F057FD0A991F4800F08C
:10050000D7FC039B002B23D11D4800F04DFD31008B
:100510001C4800F0CDFC6946104BC91A1A4BC9188B
:1005200003D54942194800F0C3FC0B9B1E00201C58
:100530008268C36801698C4641698E46AD46311CAC
:10054000F0C9A046A946B246BB46F0C9416800685A
:1005500001BE0F49052000F065F8C04600000020EC
:10056000FEE7FEE7FA1C0000101D00003F1D000022
:100570005A1D0000971D0000D51D0000DA1D000067
:10058000EC1D00001D1E0000A8FEFFFF451E000020
:10059000721E000010B50249062000F043F8C04664
:1005A000851E000010B5034800F06AFB024800F009
:1005B0008BF810BD04020020980300200023E121E5
:1005C00010B5034A4902180000F070FA10BDC04689
:1005D000A505000070B504000D002A0021000548A3
:1005E00000F038FB002804D10121034800F03CF85A
:1005F000F3E770BD040200209803002010B50C0042
:100600000A000100002000F021FA200010BD0000C7
:1006100010B50021024800F0DDFA00F07BF910BDB2
:10062000134400410C4B10B51A680C00002A0ED17F
:1006300001321A60032803D17146084800F038FCE3
:100640002100074800F034FC064800F031FCFFF7B9
:10065000A3FE00F04DF9C0469C030020A51E00003B
:10066000A91E0000C51E000070B505000C00FFF7B4
:1006700093FE2B680600002B04D1013B2B60FFF793
:1006800093FE19E0002C19D00E4B02211C682000AB
:10069000FFF784FD2B68013305D1230008332B605D
:1006A0000023A36003E02100280000F08DF8300053
:1006B000FFF77AFEFFF73CFE012002E0FFF774FE31
:1006C000200070BD8802002070B50500FFF764FEB1
:1006D00006002868002803D0431C05D100232B60A6
:1006E0003000FFF761FE12E003680A212B60083832
:1006F0000400FFF753FD2B68002B01D1013B2B6059
:1007000064793000FFF750FE2000FFF785FD70BDD3
:1007100010B500F0E1FA034800F0CAFB00F0C4FA9B
:10072000002010BDD31E000010B5034B01201B6834
:1007300000F066F9F9E7C046A00A00201FB5FFF7F0
:100740002BFE002480210D4B0F221B6849000293D1
:100750000B4B019400930B480C2300F04FF8C02181
:10076000094B07221B68C9000293084B01940093B0
:1007700007480C2300F042F8FFF7D6FD14020020D2
:1007800029070000A0030020180200201107000024
:10079000A004002010B5FFF7FFFD094B1B681A7974
:1007A000082A07D95B79074A9B009958002901D08C
:1007B00009689950FFF7F8FDFFF7BAFD10BDC04674
:1007C000880200209002002070B50B79082B03D915
:1007D00009490320FFF726FF0A004C790832036815
:1007E000002B06D01D00083D6D79AC4201D31800E6
:1007F000F5E78B60026070BD931E0000F0B587B016
:1008000005000291039204930F2A2BD8032303407F
:10081000191E029B04D00422531A029AC518D31A37
:100820000322303B93430593EC18049B1B0705D52B
:100830002B00A34203D21B600433FAE72D60FFF7BD
:10084000ABFD01230700284A19B2019199005658BF
:10085000002E0AD00133212BF6D13800FFF7A4FD7A
:100860008B2000E0162040423BE06B469B888C507A
:100870000C98E3802A00059B0D99FFF70DFD029B64
:100880000121E3620E9B194AA3626B461B7B206029
:10089000637101235B42E361136865620133136096
:1008A000049B2671A660E66026616661A6612662E9
:1008B0000B4203D02000FFF771FC0EE00A2120005C
:1008C000FFF76CFC049B5B0707D43800FFF76CFD57
:1008D0006B469889FFF7A0FC02E03800FFF764FD43
:1008E000019807B0F0BDC046D00200208C02002065
:1008F00010B5EFF30581C905C90D03D010390448BF
:1009000000F0D6FA00BE042000F07AF8FBE7C046FB
:100910001A1F000010B502242E4A1378A343137047
:1009200000F0DCF90E2210212B4B2C489A619A69B9
:100930000A439A614268224342609A698A439A61F3
:10094000274B284A196A0A4080211A621A6A8A4388
:100950001A621A6A40398A431A621A6A22431A6270
:100960000822D9681142FCD001221F490A70487838
:100970001D4A40B20028FADB1C4890601C485060B9
:100980001C4850804A7852B2002AFBDB2F229A641E
:100990000F3ADA64184B1E3A1A700323174802788C
:1009A0001A42FCD080235B008B6084235B024B6087
:1009B0004B785BB2002BFBDBE0200323C00002007E
:1009C0001A4392B24A804A78D209FCD10133232BD0
:1009D000F5D110BD0010004000040040004000416F
:1009E00000080040FFFCFFFF000C00400108000071
:1009F0000106010001410000440800405008004089
:100A00000020704710B50E4B0201D3581A7E5207D2
:100A100008D5198D0B4BC0001A18C9B2C3585068BD
:100A2000984705E01A7E52B2002A01DA80221A762F
:100A3000054B1B68002B01D0FFF7ACFE10BDC04674
:100A40002C1F0000A40A00208002002070B50125A0
:100A5000064C8A180001914207D003591E7E2E428F
:100A6000FCD00E7801311E85F5E770BD2C1F00000B
:100A700004220B4B0001C35810B5DB045B0F9C1E16
:100A8000A24008481233016A0A4302628022D2015E
:100A90001343054A538053785BB2002BFBDB10BD38
:100AA0002C1F000000040040000C0040F0B585B091
:100AB000050002920393012858D806012D4800F042
:100AC00045F92D4F0090F4592800BE19FFF7D0FFCB
:100AD00077680221380000F07DF8337B3800190078
:100AE000019300F05BF8B6680021300000F072F866
:100AF0000199300000F052F801232360E2691A42A4
:100B0000FCD11E4B009823600A2100F0A5F90723B1
:100B1000A28919404B03D104C90C1943A181009843
:100B20000A2100F013F9A289C004C30C500B400342
:100B30001843C0239B02A08163600423E06918402E
:100B4000FCD102222368ED0013432360029A0C4B70
:100B5000EA505D19039B0B4A6B600423A375E40400
:100B6000640F0734033BA340136001E001204042BF
:100B700005B0F0BD80C3C9012C1F00000420104047
:100B8000A40A002000E100E010B50020FFF73AFFC2
:100B900010BD10B50120FFF735FF10BD1F22030067
:100BA00070B50124934302409D18224140359A18A4
:100BB0002E7813002040264380000E34844081406C
:100BC0002E7030331A78A2431A701A781143C9B2C2
:100BD000197070BD1F23020018409A431E3B10B5C8
:100BE000834007290FD88C0701D5536000E093603C
:100BF0000624101840300C4004705361002007296F
:100C000003D1936101E00120404210BD70B5002482
:100C100001252B00A3400C4A11690B4209D0136136
:100C2000D2681A4205D0094BE20099184868D35897
:100C300098470134102CECD1054B1B68002B01D0D8
:100C4000FFF7A8FD70BDC04600180040B40A0020A0
:100C50008002002030B51400002C0FD08568C368D6
:100C60009D420BD08568013C6B1C83604368013B4F
:100C70002B400568EB5C0B700131EDE7101B30BDBC
:100C8000C26830B543688468121B9A4208D0C268B3
:100C90000468013B551C1340C560E154002001E08D
:100CA0000120404230BD000010B5064800F07CF93C
:100CB0000549064800F0FCF80549064800F0F8F838
:100CC000002010BD4C1F0000591F0000651F0000D0
:100CD0008D1F0000941F000070470000184B194A38
:100CE000196AF0B50A408021C9030A4380211A62BB
:100CF000DA69C9051202120A0A43DA610322C02521
:100D000000219446FF27AD008A080F489200121870
:100D100060463E000840C000864054590131B4434B
:100D200040268640344354511C29EDD11A690C39B0
:100D30000A431A615A69F131FF310A435A61F0BD21
:100D400000ED00E0FFFF00FF00E100E000224308AB
:100D50008B4274D303098B425FD3030A8B4244D383
:100D6000030B8B4228D3030C8B420DD3FF220902C5
:100D700012BA030C8B4202D31212090265D0030B84
:100D80008B4219D300E0090AC30B8B4201D3CB037A
:100D9000C01A5241830B8B4201D38B03C01A5241BC
:100DA000430B8B4201D34B03C01A5241030B8B42BE
:100DB00001D30B03C01A5241C30A8B4201D3CB02A9
:100DC000C01A5241830A8B4201D38B02C01A52418E
:100DD000430A8B4201D34B02C01A5241030A8B4291
:100DE00001D30B02C01A5241CDD2C3098B4201D3A9
:100DF000CB01C01A524183098B4201D38B01C01A27
:100E0000524143098B4201D34B01C01A524103099D
:100E10008B4201D30B01C01A5241C3088B4201D34C
:100E2000CB00C01A524183088B4201D38B00C01AF9
:100E3000524143088B4201D34B00C01A5241411A20
:100E400000D20146524110467047FFE701B500202D
:100E500000F006F802BDC0460029F7D076E77047DB
:100E60007047C0460E4B70B500251E000D4CE41AAD
:100E7000A410A54204D0AB00F35898470135F8E719
:100E8000FFF716F9084B00251E00084CE41AA410C1
:100E9000A54204D0AB00F35898470135F8E770BD80
:100EA0005020000050200000502000005020000082
:100EB0000FB40B4B13B51C68002C05D0A369002B95
:100EC00002D1200000F03AFA05AB049AA168200094
:100ED000019300F007FC16BC08BC04B01847C046DC
:100EE0007C02002070B505000E00002804D0836944
:100EF000002B01D100F022FAAB69AC68002B02D1C3
:100F0000280000F01BFA254B9C4201D16C6808E0D8
:100F1000234B9C4201D1AC6803E0224B9C4200D1A0
:100F2000EC68A3891B0702D52369002B11D121008E
:100F3000280000F099F800280BD0012040422BE057
:100F4000013B0136A360002B08DB23685A1C22609A
:100F500019703178A3680029F2D10BE0A26993429D
:100F600001DB0A29F1D12200280000F027F8431CF8
:100F7000EFD1E2E7013BA360002B08DA22000A313F
:100F8000280000F01BF8431CD7D00A2004E00A20F8
:100F900023685A1C2260187070BDC046BC1F000038
:100FA000DC1F0000FC1F000010B5034B0100186897
:100FB000FFF798FF10BDC0467C020020F8B5050081
:100FC0000F001400002804D08369002B01D100F029
:100FD000B5F9224B9C4201D16C6808E0204B9C4241
:100FE00001D1AC6803E01F4B9C4200D1EC68A369BF
:100FF000A360A3891B070AD52369002B07D02368A8
:101000002269FEB2981A636998420FDB08E021005A
:10101000280000F029F80028F1D0012676421BE0D4
:101020002100280000F01CF90028F6D1A368013047
:10103000013BA36023685A1C22601F7063699842B9
:1010400004D0A389DB0707D50A2E05D1210028008B
:1010500000F006F90028E0D13000F8BDBC1F000008
:10106000DC1F0000FC1F0000364B70B51D68060039
:101070000C00002D05D0AB69002B02D1280000F038
:101080005DF9314B9C4201D16C6808E02F4B9C42CA
:1010900001D1AC6803E02E4B9C4200D1EC680C22DD
:1010A000A35E9AB2110723D4D10607D409220120E6
:1010B000326037321343A381404242E0530713D5D5
:1010C000616B002908D023004433994202D03000DC
:1010D00000F034FA002363632422A3899343A3819D
:1010E00000236360236923600822A3891343A3813B
:1010F0002369002B0BD1A0238022A1899B009200A1
:101100000B40934203D02100300000F0D1F90123BD
:10111000A289134005D00023A36063695B42A361E9
:1011200003E0920700D46369A3600020236983422F
:1011300007D10C22A35E1A0603D540221343A381D4
:10114000013870BD7C020020BC1F0000DC1F0000C5
:10115000FC1F0000F7B58A8905000C0013075AD45C
:101160004B68002B02DC0B6C002B19DDE76A002FAB
:1011700016D000232E682B6080235B011A4001D01B
:10118000606D14E00123216A2800B847431C0ED18A
:101190002B68002B0BD01D2B01D0162B02D12E60FB
:1011A00000205AE04022A3891343A38155E0A3897C
:1011B0005B0706D56368C01A636B002B01D0236CF4
:1011C000C01A00230200216A2800E76AB847A389F1
:1011D000421C06D129681D293AD8204ACA40D207A4
:1011E00036D50022626022692260DB0405D5431CEB
:1011F00002D12B68002B00D16065616B2E60002945
:10120000CED023004433994202D0280000F096F952
:101210000020606321E00F69002FC1D00B680F60D0
:10122000DB1B01930023920700D14B69A36003E00D
:10123000019B3F181B1A0193019B002BB0DD019B02
:101240003A00216A2800A66AB0470028F0DCA3898A
:10125000402201201343A3814042FEBD01004020F3
:101260000B6970B505000C00002B01D100201CE0BB
:10127000002804D08369002B01D100F05FF80B4BEC
:101280009C4201D16C6808E0094B9C4201D1AC68DA
:1012900003E0084B9C4200D1EC680C22A35E002BBB
:1012A000E4D021002800FFF755FF70BDBC1F0000EF
:1012B000DC1F0000FC1F000010B5024900F0B0F870
:1012C00010BDC04661120000002310B50400036089
:1012D0004360836081814366C281036143618361AE
:1012E000190008225C3000F021F9054B246263628A
:1012F000044BA362044BE362044B236310BDC0465E
:101300003D1C0000651C00009D1C0000C91C000065
:1013100070B568254B1E5D430E002900743100F046
:1013200059F9041E08D000212A00016046600C30E3
:10133000A060683200F0FAF8200070BD836913B530
:101340000400002B28D18364C3640365134B144A43
:101350001B6882620193984201D1012383612000BE
:1013600000F020F86060200000F01CF8A060200071
:1013700000F018F80022E06004216068FFF7A4FF85
:1013800001220921A068FFF79FFF02221221E068D5
:10139000FFF79AFF0123A36113BDC046B81F0000E9
:1013A000B9120000F8B51D4B06001D68AB69002B93
:1013B00002D12800FFF7C2FF4835AC686B68013BDB
:1013C00005D40C22A75E002F10D06834F7E72B68F5
:1013D000002B01D02D68F0E704213000FFF798FFC3
:1013E00028600028F6D10C23336016E0012320008A
:1013F0005B42E3810233A38167662760A760676071
:1014000027616761A7615C300822390000F08EF81F
:1014100020006763A763A764E764F8BDB81F0000F6
:10142000F7B504000700002601914834002C16D0BF
:101430006368A5680093009B013B00930DD4AB89C2
:10144000012B08D90E22AB5E013304D029003800ED
:10145000019B984706436835EDE72468E6E73000CE
:10146000FEBD000070B50E001D000E23C95E90B0D9
:101470001400002906DA00232B60B3891B060FD560
:1014800040230FE001AAFEF74DFE0028F3DBF02316
:10149000029A1B021340054A9B185A4253412B6083
:1014A0008023DB000020236010B070BD00E0FFFF50
:1014B000F7B502268B8905000C00334210D101AB31
:1014C0006A46FFF7CFFF00990700280000F082F876
:1014D00000280CD10C22A35E9A0523D43343A381A8
:1014E0002300473323602361012363611AE08022D4
:1014F0000D4BAB62A38920601343A381009B206145
:101500006361019B002B0AD00E23E15E2800FEF7E9
:101510000EFE002803D00122A3891343A381A389CF
:101520001F43A781F7BDC046B9120000030082180F
:10153000934202D019700133FAE7704770B5050085
:10154000002944D00C1F2368002B00DAE41828007F
:1015500000F0CBFB1E4A13681100002B02D1636020
:10156000146031E0A3420DD92268A018834203D150
:1015700018685B688218226063600C6024E0A242F5
:1015800003D813005A68002AF9D11E689819A0429E
:101590000BD12168711858181960824214D1106853
:1015A0005268411819605A600EE0A04202D90C231B
:1015B0002B6009E021686018824203D110685268EC
:1015C0004118216062605C60280000F08FFB70BDF4
:1015D000380B0020032370B5CD1C9D430835060051
:1015E0000C2D01D20C2501E0002D01DBA94202D90E
:1015F0000C23336048E0300000F077FB234B1C687D
:101600001A002100002913D00B685B1B0DD40B2B93
:1016100002D90B60CC181EE08C4202D163681360C3
:101620001AE04B6863600C0016E00C004968E9E7BB
:10163000174C2368002B03D13000FEF73FFD2060DC
:1016400029003000FEF73AFD431C18D00323C41CC8
:101650009C43A0420DD12560300000F047FB2000E4
:1016600007220B30231D9043C31A0ED05A42E2507A
:101670000BE0211A3000FEF721FD431CEBD10C23B7
:101680003000336000F032FB002070BD380B0020CA
:10169000340B0020936810B5013B9360002B05DAF2
:1016A0009469A34208DBCBB20A2B05D01368581CFF
:1016B00010601970C8B201E0FFF780FC10BDF8B5EA
:1016C00006000F001400D518AC4208D021783A006B
:1016D0003000FFF7DFFF0134431CF5D100E00020AC
:1016E000F8BD0000F0B59FB006000F000292059310
:1016F000002804D08369002B01D1FFF71FFE7F4B28
:101700009F4201D1776808E07D4B9F4201D1B768C5
:1017100003E07C4B9F4200D1F768BB891B070AD5C9
:101720003B69002B07D0002306AD6B6120336B763D
:101730001033AB763DE039003000FFF795FC002810
:10174000F1D001204042D6E0059A111D12680591A2
:10175000002A00DA7FE00992013423782E2B00D191
:101760008DE021780322684800F0B4FA002807D001
:10177000654B2A68C01A4023834013432B60013411
:101780002178631C062261480293297600F0A2FAB0
:10179000002800D19DE05E4B002B00D090E0072296
:1017A000059B07339343083305936B69039A9B1892
:1017B0006B61029C2378002B04D1029BE31A0493F3
:1017C00012D003E0252BF8D00134F3E7049B029AF2
:1017D00039003000FFF773FF431C00D186E06A69CF
:1017E000049B944663446B612378002B7ED00122D6
:1017F000002352426A6002A95432521801342B600D
:10180000EB60AB601370AB6521780522414800F0B6
:1018100061FA002808D03F4B2A68C01A0123834090
:1018200013432B600134EFE72B68DA0604D553220B
:10183000202102A8121811701A0704D553222B2157
:1018400002A81218117022782A2A00D17CE7099B7D
:1018500000200A2105E05242EA60022213432B6075
:101860007AE72278303A092A04D84B4301349B188E
:101870000120F6E7002800D16FE709936DE7637850
:101880002A2B0AD1059B02341A1D1B680592002BD6
:1018900001DA01235B42079363E700230A201A0061
:1018A00001346B6021783039092904D8424301346E
:1018B00052180123F6E7002B00D152E7079250E7B8
:1018C00005AB00933A00144B2900300000E000BF44
:1018D00007E005AB00933A000F4B2900300000F001
:1018E0008BF80390039B013300D05EE7BB895B0656
:1018F00000D526E70B981FB0F0BDC046BC1F000006
:10190000DC1F0000FC1F0000222000002620000039
:10191000000000001C200000BF160000F7B51700F3
:1019200001938A680B6900900C00934200DA13005F
:1019300022003B6043321278002A01D001333B6021
:1019400023689B0602D53B6802333B60062523686B
:101950001D401ED0230043331B785A1E934122683A
:1019600092061CD53020E1184331087021005A1C22
:1019700045310978A2184332023311700FE022007A
:101980000123193201990098089EB047431C0ED0DC
:101990000135E3683A689B1A9D42F0DBDAE72200E2
:1019A000019943320098089DA847431C02D10120A9
:1019B000404220E006232068E1683A6803400025A1
:1019C000042B03D18D1AEB43DB171D40A36822695A
:1019D000934201DD9B1AED180027BD420AD0220078
:1019E00001231A3201990098089EB047431CDED0AB
:1019F0000137F2E70020FEBDF0B58BB006920A0079
:101A000043320793059004920A7E0C00109B6E2AC5
:101A100000D1ABE011D8632A22D009D8002A00D126
:101A2000B5E0582A00D0C5E045310A70814A4FE040
:101A3000642A1DD0692A1BD0BCE0732A00D1AAE019
:101A400009D86F2A29D0702A00D0B3E02022096873
:101A50000A43226037E0752A1FD0782A33D0A9E0E4
:101A60000E001A684236111D196013683370A4E025
:101A700021681A68080606D4490604D5111D1960A4
:101A80000023D55E02E0111D19601568002D3BDAB8
:101A90002D23049A6D42137036E021681A680806F7
:101AA00006D4490604D51568111D1960ADB202E0CF
:101AB000111D196015685F4B227E039308276F2A5A
:101AC0001DD00A271BE022007821453211705A4AA6
:101AD00019680392081D226818600D68100602D468
:101AE000500600D5ADB2D30702D520231A43226099
:101AF0001027002D03D1202322689A43226023005F
:101B0000002243331A7002E00A274A4B03936368AA
:101B1000A360002B09DB0422216891432160002D82
:101B200005D1049E002B11D07BE0002D79D0049EBE
:101B300028003900FFF790F9039B013E5B5C280009
:101B400033703900FFF702F9051EF1D1082F09D1D2
:101B50002368DB0706D563682269934202DC3023E1
:101B6000013E3370049B9B1B23612BE009681A68BC
:101B7000080607D4490605D5111D19601368A28A05
:101B80001A8004E0111D1960136862691A6000234D
:101B9000049E236116E01A68111D19601668002161
:101BA0006268300000F096F8002801D0801B606069
:101BB000636803E02600423632700123236100236C
:101BC000049A1370079B09AA00932100069B0598AD
:101BD000FFF7A4FE431C02D10120404227E0236905
:101BE000320006990598079DA847431CF4D0236846
:101BF00000259B070FD4099BE068984217DA18006C
:101C000015E022000123193206990598079EB04776
:101C1000431CE1D00135E368099A9B1A9D42F0DB31
:101C2000E9E72600039B42361B7833708EE70BB042
:101C3000F0BDC0462D2000003E20000070B50C0015
:101C40000E25495FFEF758FA002803DB636D1B1869
:101C5000636503E0A289024B1340A38170BDC046B7
:101C6000FFEFFFFFF8B51F008B8905000C00160081
:101C7000DB0505D50E23C95E00220223FEF74DFACF
:101C8000A289054B28001340A38132000E23E15E98
:101C90003B00FEF737FAF8BDFFEFFFFF70B50C0011
:101CA0000E25495FFEF739FAA389421C03D1054A84
:101CB0001340A38104E0802252011343A381606595
:101CC00070BDC046FFEFFFFF10B50E23C95EFEF7E3
:101CD0001FFA10BDC9B28218904204D003788B421B
:101CE00002D00130F8E700207047704770474E4D32
:101CF000492048414E444C4552000A4953522073F2
:101D00007461636B206F766572666C6F77656400D3
:101D1000537461636B20706F696E74657220636FBA
:101D2000727275707465642C2072657365742074AA
:101D30006F20746F70206F6620737461636B000A8C
:101D4000436F6E74657874206265666F7265206893
:101D50006172646661756C743A0020202072303ABA
:101D60002030782530386C780A20202072313A20D3
:101D700030782530386C780A20202072323A2030B2
:101D8000782530386C780A20202072333A20307859
:101D90002530386C780A0020207231323A203078B1
:101DA0002530386C780A2020206C723A2030782553
:101DB00030386C780A20202070633A203078253043
:101DC000386C780A20207073723A203078253038C9
:101DD0006C780A0A004D697363004558435F5245A9
:101DE000543A2030782530386C780A004174746594
:101DF0006D7074696E6720746F207265636F6E73A7
:101E0000747275637420737461746520666F7220D8
:101E1000646562756767696E672E2E2E00496E20B5
:101E20004744423A0A2020736574202470633D3091
:101E300078256C780A20206672616D6520300A2052
:101E40002062740A000A49535220737461636B2044
:101E50006F766572666C6F77656420627920617455
:101E6000206C656173742025642062797465732E1B
:101E70000A0048415244204641554C542048414EA6
:101E8000444C45520044554D4D592048414E444C18
:101E90004552004641494C45442041535345525414
:101EA000494F4E2E0025700A002A2A2A2052494FF7
:101EB00054206B65726E656C2070616E69633A0ABE
:101EC00025730A0A002A2A2A2068616C7465642E28
:101ED0000A0A006D61696E28293A205468697320E6
:101EE00069732052494F5421202856657273696FD7
:101EF0006E3A20323031362E31302D646576656C85
:101F00002D37312D6736643635342D766D290A002C
:101F100069646C65006D61696E00496E7369646522
:101F2000206973722025640A000000000008004246
:101F3000054400410444004103000000001C00422D
:101F400017440041164400410300000048656C6CD2
:101F50006F20576F726C64210073616D7232312D86
:101F60007870726F00596F75206172652072756E9E
:101F70006E696E672052494F54206F6E2061286E43
:101F80002920257320626F6172642E0A0073616DCF
:101F9000643231005468697320626F617264206634
:101FA000656174757265732061286E292025732020
:101FB0004D43552E0A0000001C02002000000000C6
:101FC0000000000000000000000000000000000011
:101FD0000000000000000000000000000000000001
:101FE00000000000000000000000000000000000F1
:101FF00000000000000000000000000000000000E1
:1020000000000000000000000000000000000000D0
:10201000000000000000000000000000232D302B15
:102020002000686C4C0065666745464700303132D9
:102030003334353637383941424344454600303130
:10204000323334353637383961626364656600008F
:10205000400B00205803002040000000000000005A
:1020600000000000101F0000151F0000000000000D
:10207000BC1F0000DC1F0000FC1F0000000000006F
:102080000000000000000000000000000000000050
:102090000000000000000000000000000000000040
:1020A0000000000000000000000000000000000030
:1020B0000000000000000000000000000000000020
:1020C0000000000000000000000000001C020020D2
:04000003000003BD39
:00000001FF
