:1000000000020020D9030000290400003904000088
:1000100000000000000000000000000000000000E0
:100020000000000000000000000000006D03000060
:100030000000000000000000450300003D0100003A
:100040003D0100003D0100003D0100003D010000B8
:10005000250F00003D0100003D0100003D010000B2
:100060003D010000C90D00003D0100003D01000000
:100070003D0100003D010000D30D00003D010000E6
:100080003D0100003D01000045110000AD110000E0
:100090003D0100003D0100003D0100003D01000068
:1000A0003D0100003D0100003D0100003D01000058
:1000B00010B500F0DDF910BD7047000070B50C0000
:1000C000060000F077F9094B094A1D682919914289
:1000D00002D8084A914204D20C23012533606D42B4
:1000E00000E0196000F06EF9280070BD00020020E9
:1000F000008000208C51002010B51900100000F085
:10010000C3F910BD10B51900100000F0D1F910BDF1
:100110001323036001204042704713230360012032
:100120004042704713230360012040427047002380
:10013000022203608A425B411800704710B500F04C
:1001400083F910BD70B500240F4B104E1C60104B8E
:100150003568186800F096F80E4B8000C3582000F0
:100160001B68083B9D420ED0A54204D02A79092A7B
:1001700001D101322A71092201201A710622995EE9
:10018000054A3360118070BDE8020020F0020020B3
:10019000BC030020F8020020EC02002030B50379F7
:1001A000082917D9082B31D804004379184A9B0035
:1001B0009D580834002D04D02D6885609D582C6012
:1001C00000E08460D45001234479124AA3401468AB
:1001D00023431AE0082B19D944790D4BA400E258A7
:1001E000002A07D01568AA4202D10022E25001E09D
:1001F0002C6814604479A2009B58002B06D101336F
:10020000A340044A14689C4323001360017130BD6D
:10021000F8020020BC03002010B5094B1B681A79B6
:10022000082A02D95B79834209D900F0CEF8002868
:1002300003D00122034B1A6001E000F079F810BDF1
:10024000F0020020E802002070B5002400F0B2F8AF
:10025000084B094A1B88094D1BB29B009C50084A59
:10026000210013682868013B1360FFF797FF2C609B
:1002700000F05AF8EC02002038030020F0020020C1
:10028000F402002000230122104202D14008013371
:10029000FAE7180070470000D318032293431F4A5F
:1002A00010B51C1F2260620703D0083B1C001C4BCA
:1002B00023608022231F52041A601A4A043B1860EC
:1002C000043B1A600022043B1A60043B03321A60AC
:1002D000043B013A1A60043B013A1A60043B19607E
:1002E0000632043B1A60043B013A1A60043B013AAF
:1002F0001A60043B013A1A60043B07321A60043B5F
:10030000013A1A60043B013A1A60043B013A1A6050
:100310002000032344385B42036010BD7777777772
:10032000888888884902000000F048F801DFFEE76D
:100330008021034A490553680B4353607047C04608
:1003400000ED00E0EFF30980EC4685464046494663
:1003500052465B46FFB4704601B46846E546024922
:100360000968086000F002F8F0020020FFF7EAFEDA
:10037000EE46084800680068854601BC8446FFBC1C
:100380008046894692469B46684680F30988F54632
:1003900060470000F0020020BFF34F8F034A044B78
:1003A000DA60BFF34F8FC046FDE7C0460400FA0590
:1003B00000ED00E0EFF3108072B6704762B6EFF325
:1003C0001080704780F310887047EFF30580C0B24B
:1003D000704770477047000070B5FFF7FAFF0023C1
:1003E0000C480D490D4C1A188A4203D2E5580433C3
:1003F0001560F8E700210A4B0A4A934201D202C372
:10040000FBE7FFF7E7FF00F055FA0EF005FB00F001
:10041000DFFA70BD00020020E8020020483401002D
:10042000E80200208C51002010B50249042000F0A1
:100430004BFAC046E6FD000010B50249052000F069
:1004400043FAC046F2FD000010B50249062000F054
:100450003BFAC04605FE000010B5034800F0F0FE70
:10046000024800F07BFA10BD0402002000040020C6
:100470000023E12110B5034A4902180000F036FCC0
:1004800010BDC0465904000070B504000D002A00DC
:100490002100054800F0BEFE002804D101210348D8
:1004A00000F02CFAF3E770BD0402002000040020E5
:1004B00010B50C000A000100002000F0E7FB20004E
:1004C00010BD10B5012000F091FD10BD064B10B518
:1004D0001B680200002B06D1002800D10132002148
:1004E000012000F043FD10BD0804002010B50A4AA9
:1004F0001368002B0CD09C6881688C4202D21A00D1
:100500001B68F6E78C4203D159684468A142F6D9CA
:100510000360106010BDC04614040020F7B5002031
:10052000214E224D3368070001333360204B214CAC
:100530001A6818602B68226019000194002908D0FD
:100540003468A4468C68644503D80F00012009680C
:10055000F4E7002800D02960002F24D00021396062
:100560008A421ED01100002B04D050685C68A04263
:1005700000D91900080012681B68002A01D1036025
:100580000CE0002B01D1026008E054685E681500A1
:10059000B44200D91D0005602800ECE7019B1960FA
:1005A00001E0019A1360F7BD0C0400201404002040
:1005B0000404002010040020F8B501232C4E2D4C1B
:1005C00033602368002B06D1FFF7A8FFFFF779FF00
:1005D000431CFBD013E0FFF774FF050010E05F68D9
:1005E000FFF76FFF854211D887420FD93F1A132FAB
:1005F0000CD9FFF766FF85420FD9FFF78FFF002563
:100600002368002BEBD1F4E7B84226D223685F6859
:10061000FFF757FFA842F7D21FE02368002B07D04F
:100620005F68FFF74EFF143F14308742E8D30EE0B7
:10063000FFF747FF07008542DFD80300143304D3D8
:10064000FFF73FFF8742FBD9D7E701277F4200230F
:1006500038003360FFF73AFFF8BD23681A6818695D
:10066000226000225A609A60DA689047C8E7C04664
:100670000804002010040020164B10B51A688242AE
:100680000CD112681A60002A02D05068143801E0B8
:1006900001204042FFF71AFF1BE013001A68002AEE
:1006A00004D09042F9D102681A6012E00A4A136835
:1006B000002B03D0984203D01A00F8E7074A05E060
:1006C0000368136005E09842FAD01A001368002B03
:1006D000F9D110BD100400200404002014040020EF
:1006E00010B50023044A0549012000F0BDFC01209B
:1006F0004042FFF7EBFE10BDB905000040420F007D
:1007000070B5FFF7DEFE074B04001E68FFF7D9FE49
:100710008442F6D800240200310023002000801813
:10072000594170BD0C040020F8B504000D00FFF71E
:10073000C8FE002306002360854210D32B001E3B19
:1007400083420CD21E35FFF7BCFE8542FBD3FFF778
:10075000B8FE8542FBD8E3682069984740E0FFF780
:1007600029FE63680700002B36D1A368002B33D124
:100770001C4B65601A68B54200D20132A2601B684A
:10078000A2689A4203D92000FFF7B0FE20E0B542EC
:1007900002D9154B19000FE0144A1368002B04D03E
:1007A00059688D4201D31A00F7E7236014600FE007
:1007B0005068854203D313001A68002AF8D12260DA
:1007C0001C600B689C4203D128001438FFF77EFEA2
:1007D0003800FFF7F7FD03E02000FFF74DFFC7E704
:1007E0000020F8BD0C0400201004002004040020A8
:1007F00070B50400FFF7DEFD63680500002B06D12D
:10080000A368002B03D12800FFF7DCFD70BD20009A
:10081000FFF732FFF7E7C36870B504000D00002B47
:1008200015D0FFF7E5FF1D2D0BD8FFF74AFE060098
:10083000FFF747FE801B8542FAD8E3682069984796
:1008400005E0FFF73EFE29182000FFF76DFF70BDA1
:10085000F7B504000D00161E02D1FFF7DCFF25E0FE
:10086000FFF7A8FD63680090002B1BD1A368002B45
:1008700018D1FFF726FE0E4B07001B680193FFF708
:1008800020FE8742F5D8019B28186060F318854246
:1008900000D901332000A360FFF728FE0098FFF77E
:1008A00091FD03E02000FFF7E7FEE2E7F7BDC04659
:1008B0000C04002010B50021024800F0ABFA00F053
:1008C00049F910BD13440041094B10B51A68002ABC
:1008D00007D1013207481A600EF090F906480EF071
:1008E0008DF9FFF767FD00F033F9FFF755FDC046BE
:1008F0001804002013FE00002FFE000070B5050054
:100900000C00FFF757FD2B680600002B04D1013BBC
:100910002B60FFF757FD19E0002C19D00E4B022178
:100920001C682000FFF73AFC2B68013305D1230037
:1009300008332B600023A36003E02100280000F0AF
:100940008DF83000FFF73EFDFFF7F2FC012002E0DA
:10095000FFF738FD200070BDF002002070B50500E3
:10096000FFF728FD06002868002803D0431C05D1A6
:1009700000232B603000FFF725FD12E003680A21F9
:100980002B6008380400FFF709FC2B68002B01D10D
:10099000013B2B6064793000FFF714FD2000FFF766
:1009A0003BFC70BD10B500F08BFD03480EF026F93E
:1009B00000F05AFC002010BD42FE000010B5034BB1
:1009C00001201B6800F03CF9F9E7C0461C0B002031
:1009D0001FB5FFF7EFFC002480210D4B0F221B6891
:1009E000490002930B4B019400930B480C2300F039
:1009F00047F8C021094B07221B68C9000293084B26
:100A00000194009307480C2300F03AF8FFF78CFCA0
:100A100014020020BD0900001C0400201802002060
:100A2000A50900001C05002010B5FFF7C3FC094B09
:100A30001B681A79082A07D95B79074A9B009958DD
:100A4000002901D009689950FFF7BCFCFFF770FC42
:100A500010BDC046F0020020F80200200A0030B5A8
:100A60004C7908320368002B06D01D00083D6D79D3
:100A7000AC4201D31800F5E78B60026030BD000086
:100A8000F0B585B00700019203930F2A1FD8032306
:100A9000034003D00422D31AC718C91A24390323E8
:100AA0000E009E430296FFF785FCBC190123060049
:100AB000254A19B2009199005558002D0AD00133EA
:100AC000212BF6D13000FFF77DFC8B2000E01620B3
:100AD000404236E06B461B888C500A98E3803A000F
:100AE000029B0B99FFF7D8FB6B461B7901216371C1
:100AF0000123164A5B42E3611368206001331360EF
:100B0000039B2571A560E56025616561A56125628E
:100B10000B4203D02000FFF741FB0EE00A2120002A
:100B2000FFF73CFB039B5B0707D43000FFF74AFC51
:100B30006B469888FFF770FB02E03000FFF742FC3D
:100B4000009805B0F0BDC04638030020F402002034
:100B50007047000010B502242E4A1378A343137087
:100B600000F098FE0E2210212B4B2C489A619A69B6
:100B70000A439A614268224342609A698A439A61B1
:100B8000274B284A196A0A4080211A621A6A8A4346
:100B90001A621A6A40398A431A621A6A22431A622E
:100BA0000822D9681142FCD001221F490A704878F6
:100BB0001D4A40B20028FADB1C4890601C48506077
:100BC0001C4850804A7852B2002AFBDB2F229A64DC
:100BD0000F3ADA64184B1E3A1A700323174802784A
:100BE0001A42FCD080235B008B6084235B024B6045
:100BF0004B785BB2002BFBDBE0200323C00002003C
:100C00001A4392B24A804A78D209FCD10133232B8D
:100C1000F5D110BD0010004000040040004000412C
:100C200000080040FFFCFFFF000C0040010800002E
:100C30000106010001410000440800405008004046
:100C40000020704710B50E4B0201D3581A7E520790
:100C500008D5198D0B4BC0001A18C9B2C35850687B
:100C6000984705E01A7E52B2002A01DA80221A76ED
:100C7000054B1B68002B01D0FFF7D6FE10BDC04608
:100C80008CFE0000200B0020E802002070B501253A
:100C9000064C8A180001914207D003591E7E2E424D
:100CA000FCD00E7801311E85F5E770BD8CFE00008A
:100CB00004220B4B0001C35810B5DB045B0F9C1ED4
:100CC000A24008481233016A0A4302628022D2011C
:100CD0001343054A538053785BB2002BFBDB10BDF6
:100CE0008CFE000000040040000C0040F0B585B010
:100CF000050002920393012858D806012D480DF0F3
:100D00003BFA2D4F0090F4592800BE19FFF7D0FF91
:100D100077680221380000F07DF8337B3800190035
:100D2000019300F05BF8B6680021300000F072F823
:100D30000199300000F052F801232360E2691A4261
:100D4000FCD11E4B009823600A210DF09BFA07236B
:100D5000A28919404B03D104C90C1943A181009801
:100D60000A210DF009FAA289C004C30C500B4003FC
:100D70001843C0239B02A08163600423E0691840EC
:100D8000FCD102222368ED0013432360029A0C4B2E
:100D9000EA505D19039B0B4A6B600423A375E404BE
:100DA000640F0734033BA340136001E0012040427D
:100DB00005B0F0BD80C3C9018CFE000004201040C6
:100DC000200B002000E100E010B50020FFF73AFF03
:100DD00010BD10B50120FFF735FF10BD1F22030025
:100DE00070B50124934302409D18224140359A1862
:100DF0002E7813002040264380000E34844081402A
:100E00002E7030331A78A2431A701A781143C9B27F
:100E1000197070BD1F23020018409A431E3B10B585
:100E2000834007290FD88C0701D5536000E09360F9
:100E30000624101840300C4004705361002007292C
:100E400003D1936101E00120404210BD70B5140050
:100E5000C2050500920F012A43DC1F20224E5201D9
:100E60002840B21816563000721C3CD01F48F200C1
:100E70001350049B821853602800FFF7CBFF00211A
:100E80002800FFF7ABFF4021194A93690B43936198
:100E9000184B194A5A805A78D209FCD1174AF310D4
:100EA0009B009B1807220F203240920090409440F4
:100EB000102299698143996199690C439C61104B97
:100EC0001A600F3AB2400D4B1A61596911435961CA
:100ED000DA6002221A705A7852B2002AFBDB002034
:100EE00001E00120404270BDACFE0000300B00204C
:100EF00000040040000C00400540000000180040C5
:100F000000E100E01F2301000122994303409A40C1
:100F10008A6170471F2301000122994303409A40D0
:100F20004A61704770B5002401252B00A3400C4A8C
:100F300011690B4209D01361D2681A4205D0094BDE
:100F4000E20099184868D35898470134102CECD126
:100F5000054B1B68002B01D0FFF766FD70BDC04636
:100F600000180040300B0020E802002010B50028D7
:100F700002D0012818D031E0002909D001292DD153
:100F80002024184B92B2987B204398735A8320E018
:100F90001020144B92B2997B014399731A835A7BA8
:100FA00002435A730F381BE0002908D0012915D1DC
:100FB00020240D4B987B20439873DA6109E01024BC
:100FC000094B997B214399739A615A7B22435A7347
:100FD00006E05A7B080022435A7301E00120404298
:100FE00010BDC046002C004200300042002805D051
:100FF000012813D10A4B0B4A5A8009E00A4B094ACF
:101000005A80DA7BD209FCD1074B188A80B206E0FD
:10101000DA7BD209FCD1024B186900E0002070474E
:10102000003000421080FFFF002C0042002803D057
:10103000012806D1034A00E0034A022113880B432A
:101040001380704700300042002C0042002804D07A
:10105000012806D18022120301E08022D202014B36
:101060001A60704700E100E070B504002C4881422E
:1010700053D12C492C4848804878C009FCD12B4DCD
:10108000284845804878C009FCD1002C02D0012CAA
:1010900017D042E0264D2000298889073FD48026BA
:1010A00024483601016A3143016201202988014345
:1010B000298028881E49C007FBD40C250888A8432E
:1010C00015E01D4D2988890729D480261948760105
:1010D000016A314301622988214329802888164901
:1010E000C007FBD40C250888A843043D284308808A
:1010F0000D8812482840602508800888A843088089
:101100000F48E1000A5041184B602000FFF79EFF96
:101110002000FFF78BFF002001E00120404270BD5E
:1011200040420F00000C00401B4100001C41000029
:10113000002C00420004004000300042FFF8FFFF96
:10114000B00B002010B5164B997B1A00C9060DD5BF
:10115000597BC9060AD513480468002C19D0102100
:101160009A7B0A439A731973002110E0927B0C4B0F
:1011700092060ED55A7B92060BD50A480468002CBD
:1011800007D020219A7B0A439A7319731F3940684C
:10119000A047054B1B68002B01D0FFF745FC10BD95
:1011A000002C0042B00B0020E802002010B5164BC6
:1011B000997B1A00C9060DD5597BC9060AD5134873
:1011C0008468002C19D010219A7B0A439A731973F2
:1011D000002110E0927B0C4B92060ED55A7B9206B2
:1011E0000BD50A488468002C07D020219A7B0A433B
:1011F0009A7319731F39C068A047054B1B68002BF1
:1012000001D0FFF711FC10BD00300042B00B0020F0
:10121000E802002030B51400002C0FD08568C368A8
:101220009D420BD08568013C6B1C83604368013B89
:101230002B400568EB5C0B700131EDE7101B30BDF6
:10124000C26830B543688468121B9A4208D0C268ED
:101250000468013B551C1340C560E154002001E0C7
:101260000120404230BD000000B50821A1B0074870
:1012700000F004FB06480DF03DFD06480DF03AFD78
:1012800080226946044807F011FEC046C00B0020CA
:10129000ECFE000013FF000060FF0000F0B5060048
:1012A0008DB00D00012802DC09686B4884E06B49B1
:1012B00068680DF0D5FD041E74D1042E02DC296887
:1012C000674887E0052E0AD068690DF0E1F90390C0
:1012D000062E06D0A8690DF0DBF9070002E0012315
:1012E0000393604FAB6808A804932B690499EE68D8
:1012F000059307F09FFA002801D15B48A1E0300078
:101300000DF0C6F96B4606901B8B0193002B01D0A4
:1013100000230EE0554894E06B46049A1B8B079916
:1013200053480DF06BFC002138000AF0F9FC029BD9
:1013300001330293029B039A934200D188E00598FF
:101340000DF0A0FD002302000599180003F03EF9FE
:10135000051E01D1474874E0019AC3681100079344
:1013600006F089FF061E01D1434816E008AA0021B5
:1013700000F068FE051E07D140480DF0BBFC2900B7
:10138000300003F001FA63E003003D4A3D490420C8
:1013900002F046FD061EBFD13B480DF0ABFC31000C
:1013A0002800EEE7394968680DF05AFD00284BD156
:1013B000022E05D1296836480DF020FC012447E0B3
:1013C0003449A8680DF04CFD041E25D1032E05D12B
:1013D000296831480DF012FC013439E02F4E082203
:1013E000B35E002B02D071682D4812E0E8680DF062
:1013F0004FF983B2002B01D12A4822E02A4B85B253
:101400001B88310004203381756002F09DFF2900A4
:1014100026480DF0F3FB1BE02549A8680DF020FDE0
:10142000041E11D11D4D0822AB5E002B03D12148B3
:101430000DF0E4FB0CE00420290002F095FF1E48AB
:101440002C810DF057FC03E01C480DF053FC0024E8
:1014500020000DB0F0BDC04678FF000095320100BD
:1014600091FF000040420F00CEFF0000F9FF000096
:10147000BB000100210001004D00010072000100CD
:10148000020200000000FFFF98000100CB010100F4
:10149000DD000100FC000100020101001C0200202F
:1014A000200101004B01010074310020690101009D
:1014B0009201010097010100B6010100D201010073
:1014C00010B5002007F08CFCFFF70AF903F064F870
:1014D00003F0A0FA04F086FE00F0D6FB06F0E4FE6E
:1014E00000F006F801F0E4F803F0B4FA10BD0000D3
:1014F00037B50A4D0A4928000AF07AFC094C290040
:10150000200002F007FE002807DB80210094064B34
:101510000322C900054802F09BFE37BD00100020E1
:10152000EC0101005410002000020100000C00201A
:10153000F8B505000F00FEF73DFF354B354A1B8817
:1015400006001BB29B009858036A9C46002B1AD0D9
:1015500044698269A24216D9621C4261C269144080
:10156000002F08D10269002A05D1621C03D1300086
:10157000FEF728FF4AE0002C09DB2900E200624464
:1015800088CA88C104E001246442002FEAD0C56003
:101590000269002A2BD011680161002C0DDB8569DE
:1015A0004169C469691A8C4203DB691C8161254069
:1015B00001E001256D42ED006544083A1400D3684E
:1015C00006CB06C523790F25052B06D000230A215B
:1015D000E3602000FEF7E2FD65793000FEF7F2FEE1
:1015E00001240E2D12D82800FEF716FE0EE0002C66
:1015F00008DA0321FEF7D2FD3000FEF7E3FEFEF726
:1016000097FE02E03000FEF7DDFE01242000F8BD69
:10161000EC0200203803002010B583694269C469D8
:101620009A1A944201DA002009E05A1C8261234090
:10163000F9D4026ADB00D31805C905C3012010BD27
:10164000F7B51E00254B8900CC58254B00901B8810
:1016500001920380002C05D101253000FEF7B2FE77
:101660006D4239E02379032B28D01E4B00992000CE
:101670001F68FFF7D1FF051E09D03000FEF7A2FE5C
:101680003B790125052B27D1FEF752FE24E0019B73
:10169000002B03D13000FEF795FE1DE03979009B49
:1016A0000539FB604A424A413800111DFEF776FDBC
:1016B000200039001030FFF7D1F907E0E368009A05
:1016C00003CA03C30A212000FEF768FD3000FEF7BD
:1016D00079FE0125FEF72CFE2800FEBD3803002010
:1016E000EC020020F002002070B50400FEF762FE5C
:1016F000074B05001B8821002380064B1868FFF765
:101700008BFF04002800FEF75DFE200070BDC04680
:10171000EC020020F00200200E4A890003008858E5
:1017200010B5002812D021221A800279032A09D18B
:10173000C26812CB12C20A21FEF730FD0120064B0F
:10174000186005E01900FFF767FF01E00120404243
:1017500010BDC04638030020E802002070B5040028
:101760000D00FEF732FE002804D029002000FFF70C
:10177000D3FF10E0084B1B881BB29D4203D1200011
:10178000FFF7B2FF07E0FEF715FE01220300290074
:101790002000FFF755FF70BDEC02002070B504007B
:1017A0000D00FEF712FE061E04D029002000FFF7F0
:1017B000B3FF10E0084B1B881BB29D4203D12000F1
:1017C000FFF792FF07E0FEF7F5FD32000300290066
:1017D0002000FFF735FF70BDEC020020F7B50C00CC
:1017E00001920500FEF7E6FD0A4B0B4A1B88070035
:1017F0001BB29B009E5805213000FEF7CFFC230052
:10180000F46006CD06C320003B0001220199FFF7DA
:1018100017FFFEBDEC0200203803002070B5040065
:101820000D00FEF7C7FD0022A35E0E4A9B009C58E8
:1018300006002379052B04D0FEF7C4FD01204042A9
:101840000EE0E368200006CD06C30A21FEF7A6FCE1
:1018500064793000FEF7B6FD2000FEF7DDFC0120C4
:1018600070BDC0463803002010B50021FFF760FEB0
:1018700010BD10B50121FFF75BFE10BD0022044B27
:1018800001391B6818625A619A61D9617047C04674
:10189000F0020020184B194A196AF0B50A4080215D
:1018A000C9030A4380211A62DA69C9051202120AC1
:1018B0000A43DA610322C02500219446FF27AD00C8
:1018C0008A080F489200121860463E000840C00087
:1018D000864054590131B443402686403443545124
:1018E0001C29EDD11A690C390A431A615A69F13180
:1018F000FF310A435A61F0BD00ED00E0FFFF00FF39
:1019000000E100E003000020002B03D0DA685B68F0
:101910008018F9E77047000010B508220949040053
:101920000DF0A0F80123002809D022780023FF2A17
:1019300005D160780F330340023B58424341180001
:1019400010BDC0469E03010010B5002102F01CFF2F
:1019500010BDCBB2002170B514000200080002F0E7
:10196000BBFC051E03D12000FFF7EEFF0FE01023A4
:10197000E35601330AD1A36821001A793F231340AB
:1019800082682000137102F058FF04006C60280088
:1019900070BD0000F0B5050085B010008C680F0028
:1019A0001600FFF7AFFF40BA80B2A3792071000A9A
:1019B0006071FF2B0AD1337C023BDBB2022B03D8D0
:1019C000234AD35CFF2B00D13B23A371E379002B87
:1019D00009D14033002D05D0280000F0CDFCE523CF
:1019E0005B00C35CE371230008331022194918001F
:1019F00001930DF037F8039000281BD12300183312
:101A000015491022180002930DF02CF8011E06D182
:101A1000102201980DF03EF80123E3750AE00299C7
:101A2000039A280000F07DFD011E03D010220198CA
:101A30000DF027F83900300002F0E1FC0023984255
:101A400003DA0300821C00D10023180005B0F0BDAA
:101A50000F020100AE030100FE030100F8B58B6820
:101A60000D005880060000F087FC6F680400380005
:101A7000FFF748FFE4235B00E35A984203D92800AC
:101A8000FFF762FF1FE087229200A358380001335E
:101A9000A350FFF737FF89239B00E2581018E0504E
:101AA00001205E3BE35A034207D02B00064A074958
:101AB00002F0B6F9002806D1E1E72900300002F073
:101AC000DDF90028DBDDF8BD020200000000FFFFA9
:101AD0001023F0B589B000AF7960C356040001331C
:101AE0000AD1836802269E5F02F05CFE00286BD05C
:101AF00043680400FB6001E00026F860F86802F02B
:101B000051FE051E60D0FB689C4201D0606000E081
:101B100004006A68AB68BA601A7EFF2A2DD1002ED5
:101B200011D10823EF3ABA18D01802F0BFFB0028F1
:101B30004AD00021220008001823FE5EFFF709FFAB
:101B4000041E00D198E07B68002B06D0BA682900FB
:101B50003000FFF71FFF002836DB4021A26830006D
:101B600013790B43137100F05BFE436821000133CE
:101B700043603000FFF772FF7EE0183310224049C7
:101B80001800FB600CF06EFF002808D0F968002EEA
:101B90003AD11423F81800F06BFC061E39D07B688C
:101BA000002B06D0BA6829003000FFF7F3FE0028AA
:101BB0000ADB2800FFF7A6FE00210200022308002E
:101BC00002F004FD061E01D120001AE08368FB60CC
:101BD000EA68A968F8680CF054FFEA68FB68944664
:101BE0006D686344FB60002DF2D12000FFF7ACFE6E
:101BF000244B31000020185E02F04CF900283BDC39
:101C00003000FFF7A1FE37E0300000F011FC0028A3
:101C1000C5D16B46320010263B60132108230820F3
:101C2000BE19FB743018FB68791805F021FE061EFA
:101C300008D07B68002B09D0BA682900FFF7AAFEFC
:101C4000002803DA2000FFF77FFE13E010200823AE
:101C500038182200F97CC018FFF77BFE041E09D05B
:101C6000300000F0DDFD0368210001330360300027
:101C7000FFF7F4FE3B689D46BD4609B0F0BDC04687
:101C8000FE030100981000201FB50F4C0022A35E38
:101C9000002B0CD180210D4A01930D4B0292009331
:101CA00004220823C9000B48FEF7EAFE20800A48F8
:101CB0000A4B036001230371133383600BF0B2F905
:101CC0000023E05E04B010BD981000200A0201005D
:101CD0005D1F00009A10002064100020A014002056
:101CE000F7B51D0001900F0014000223292D07D025
:101CF00001333A2D04D02B00113B594259418B003E
:101D00003B74292D02D000263A2D00D10126102047
:101D10007B681856022806D0002E24D0012120000E
:101D200002F020FD1FE0290002F048FB002804D14A
:101D300001237340009306D101E0002300930121A9
:101D4000200002F00FFD1020230038561A4A1B49CC
:101D500002F066F8002802D12000FFF7F5FD009B95
:101D6000002BD9D00AE02300134A2900022002F0F8
:101D700057F8002802D12000FFF7E6FD002E1AD008
:101D8000292D06D03A2D16D1210001980BF0A6FA84
:101D900011E0002323746168002907D01023CB567B
:101DA000022B03D1200002F048FDF4E702232000BB
:101DB000237400F005F8F7BD010200000000FFFFEA
:101DC000F7B501214942040002F02DFB0600071E71
:101DD00011D083680227DF5F380000F021FD4369DE
:101DE0000500013343612000FFF78CFDF368AA6909
:101DF000D31A1818A861260025000F22002D0ED036
:101E00001023EB56022B07D1EB68282B04D1AB68CB
:101E10001B789343602B1AD02E006D68EEE70F22DB
:101E2000A3681B789343602B00D089E0200002F068
:101E3000B9FC061E00D183E00222282102F0E2FB59
:101E4000002305003374340030009D4279D0AB6824
:101E50000093009A1B7951790902194349BAE36842
:101E600089B2994202D3220000230AE0200002F046
:101E70003BFC0BE0D0681B1810201056022802D043
:101E80005268002AF6D1283B994259D8009B10226B
:101E900018333149180001930CF0E4FD002853D0A9
:101EA0000198FFF739FD0199002801D0002F07D1D3
:101EB000002000F0DDFA0300002F05D1070003E049
:101EC000380000F0B5FA030058425841C0B200286B
:101ED0003AD000980830FFF71FFD002830D1019854
:101EE000FFF71AFD00282BD1009B009ADB79013BFC
:101EF000DBB2D371002B23D0280002F053FC002862
:101F00001ED001212000494202F08DFA011E02D0AC
:101F1000200002F092FC2100002500290CD00800CE
:101F200002F040FC002803D12800FFF70DFD07E078
:101F3000416845600500F0E72800FFF7C9FD0AE0A9
:101F40002000FFF701FD06E0009B22009B79310095
:101F50003800FFF7C5FEF7BDFE030100F0B50F2600
:101F6000082799B0082108A8FFF788FC314B05A97C
:101F70004B60314B02201B8803AD0B8102F0E4F96A
:101F80002E4B6B8001AC2000FFF773FC60882C4B5C
:101F9000C0182228F6D80CF0C7F812161B1BF5F54E
:101FA000F5F5F5F5F5F5F5F5F523F528F5F544F531
:101FB0002CF5F5F5F5F5F5F5F530343840006068A9
:101FC000FFF7FEFEDEE701216068FFF781FDD9E73C
:101FD000862329005B4220006B60FFF71FFCD1E7DE
:101FE0006268537EBB435376CCE7606800F0D6FF4F
:101FF000C8E7606801F064F8C4E7606805F0CAFBF0
:10200000C0E7606805F014FCBCE76368587C3040AA
:1020100004F05AF900230374B4E7606805F09EFEEB
:10202000B0E762681A23D05E0023190001F04EFC6D
:10203000A8E7C0460000FFFFEC02002005020000F8
:10204000FFFDFFFFF7B502230F0016000021282235
:1020500002F0BCFA051E23D0846810222300083346
:102060000193391E03D018000CF00BFD02E001981B
:102070000CF010FD200010221830311E02D00CF0A0
:1020800000FD04E00CF006FD0123019AD3776022E5
:10209000002322709F326370A370E370A271E3711A
:1020A0002800FEBD10B50121FEF728FC10BDF7B5D4
:1020B0000600C136FF360700300001910025FFF70A
:1020C000F1FF38246C433C190199200006F04EFAC8
:1020D000002807D01022002120000CF0DBFC002398
:1020E000237402E00135082DEBD13000FEF736FCF9
:1020F000F7BD000010B5102203490CF0B3FC4342B9
:102100005841C0B210BDC046AE03010010B5082250
:10211000094904000CF0A6FC0123002809D022780C
:102120000023FF2A05D160780F330340023B584259
:102130004341180010BDC0469E030100F0B589B0B0
:10214000039303000500170006000024C133FF338A
:10215000019102930199300006F008FA002800D09E
:102160008CE03000FFF7C6FF002802D0002C00D121
:102170003400029B38369E42ECD10294002C00D1F0
:102180007DE01022019920000CF07BFC6B461B7B4C
:10219000677423742378FF2B19D0E3235B00EB5A79
:1021A000DB0714D501F0DEF9061E10D02F00C13771
:1021B000FF373800FEF7D2FBE2235B00E85E320017
:1021C0003300210001F080FA3800FFF76BFF019B1C
:1021D0001B78FF2B04D10122237C1343237449E095
:1021E0000198FFF793FF061E1CD1E32706237F000B
:1021F000EA5B1340062B1AD12B00C133FF331800C2
:102200000393FEF7ABFBEB5BDB0707D5E2235B0039
:10221000E85E32003300310001F058FB0398FFF70D
:1022200041FF04E08022237C524213432374E323C2
:102230005B00EA5AC43BFF3B1340012B1AD000233A
:10224000104A0E200492059380235B040693FF231B
:1022500004AA1373019B01995B7B0E31537304AB8A
:102260000222C0180CF00DFC0023802204A92800D3
:10227000FFF764FF044B6463638600E002960298F4
:1022800009B0F0BDFF0200001102000010B5017896
:1022900042783F2013020B435BBA074C9BB2834347
:1022A0003A38A34207D00930FF2904D10130104049
:1022B000052800D00E2010BDC0FE0000F7B5002597
:1022C00007000C002E0001920093009B002B08D009
:1022D0000122AA401B781A421CD00122237C1342FF
:1022E00018D12000FFF706FF002813D10199200024
:1022F00006F0A8F9009B002B06D1019B1B78FF2B51
:1023000002D0637C834205D8B04203D90600002F77
:1023100000D03C6001353834082DD6D13000FEBDE8
:10232000F8B5E226114C7600A55F0700A8421BD045
:10233000002D19D10E48FFF7B5FEA022E423D200EC
:102340005B00E25240220233E254043BE552921811
:102350002B000849A7532000FFF7F0FE0448FEF7C2
:10236000FDFA200000F0BAFEF8BDC046201700209C
:10237000E0180020CE030100E221044B49000200D6
:10238000595E1800914200D00020704720170020AD
:10239000E3225200835A10B5DC0706D50224002937
:1023A00001D0234300E0A343835210BDE3235B002D
:1023B000C35A10B5DB0701D505F08CFC10BDF7B58D
:1023C0000D0017000193FFF7D7FF041E01D1002075
:1023D00019E0002DFBD02800FFF78CFE0028F6D175
:1023E000802FF4DC2600C136FF363000FFF75AFE9E
:1023F000019B3A0029002000FFF7A0FE04003000F6
:10240000FEF7ACFA2000FEBD10B50C00002806D186
:10241000E22306485B00C35E002B05D001E0FFF716
:10242000ABFF2100FFF743FE10BDC0462017002080
:10243000F8B50F00FFF7A0FF051E16D00600C13645
:10244000FF363000FFF72EFE3900280006F08EF828
:10245000041E03D03000FEF781FA06E03835AE42A4
:10246000F2D13000FEF77AFA25002800F8BD00000E
:1024700070B5E224094D64000600285F002E04D1E7
:10248000FFF7D6FF002808D006E0FFF7D1FF0300D2
:1024900030600020834200D0285F70BD20170020EC
:1024A000F7B50F4C060020000F000025C130FF30AB
:1024B0000195FFF7F7FD2B003A00210001A8FFF777
:1024C000FDFEA84204D0019B3360E2235B00E55E81
:1024D0002000C130FF30FEF741FA2800FEBDC046A3
:1024E00020170020F7B500260F000196FFF744FFE4
:1024F00005000400C135FF352800FFF7D3FD21009A
:1025000033003A0001A8FFF7D9FE04002800B442C6
:1025100003D0FEF723FA019802E0FEF71FFA20002D
:10252000FEBDF0B58BB001911700FFF725FF03004A
:10253000C133FF33029018000593FFF7B3FD01226A
:10254000002106A80CF0A6FA029C01232600002513
:102550005B4204933378FF2B14D03000FFF7CAFDA1
:1025600000280FD1002F08D106AB1A780123AB4009
:10257000134306AA1370049504E03000FFF7C6FD6C
:102580000028F1D101353836082DE3D1049B00260F
:10259000013300D186E02A00310008A80CF07AFA55
:1025A000019B1B78FF2B05D1019B5A780F231A4002
:1025B00003920AE00198FFF7A9FD02230393002884
:1025C00003D10198FFF762FE039000252F0001223E
:1025D000BA4006AB1B781A4236D00199200026007B
:1025E00005F0C4FF002856D12000FFF78FFD02231D
:1025F000002803D12000FFF749FE0300039A9A4206
:1026000008D108AAD35D0433DBB2D355AB420ED94F
:1026100004250CE0039A9A4209D908AAD35D023333
:10262000DBB2D3551A1CAB4200D22A1CD5B2A36927
:10263000002B09D008AAD35D0133DBB2D3551A1C95
:10264000AB4200D22A1CD5B201373834082FBED194
:102650000122002106A80CF01DFA002106AB1A7811
:1026600001200B0008AC1C5DAC4204D10100994074
:102670000A430121D2B20133082BF3D1002901D042
:1026800006AB1A700023019A0793029906AB07A8BC
:10269000FFF714FE079E002E04D1049B38365E43DC
:1026A000029B9E190598FEF759F930000BB0F0BD5A
:1026B000F0B58FB007A801F0F9FD0023059007AF32
:1026C0000393039B059A934200D1A1E00023F85E97
:1026D000FFF752FE041E00D195E003000B26C13324
:1026E000FF3318000493FFF7DDFC04ABF618002558
:1026F0000023F85E012335702A0000930F21330078
:1027000001F0D4FB86302CD00023F356012B28D1C6
:10271000082208AB1A8001220AAE524232808C2273
:102720000320039992004A433A49C732FF328A187C
:102730001188014311800022B85E02220521009217
:102740002A0001F0C9FB0023F85E0223092100934F
:102750002A00330001F0AAFB31880023F85E05F05F
:1027600071FC0023F85E082300220093072108ABC8
:1027700001F09CFB00280FDB082208A90CA80CF034
:1027800080F9082224490AA80CF07BF90023402292
:102790000AA92000FFF7D2FC0E2504ABED18002398
:1027A000F85E02230022009309212B0001F07EFB3A
:1027B000002806DB2B88194A934202D9E4225200F2
:1027C000A35200220023F85E19211300009201F0A9
:1027D0006DFBE3235B008021E25A002801DD0A4300
:1027E00000E08A43E2520498FEF7B8F80121200085
:1027F000FFF7CEFDE32301225B00E35A134202D030
:10280000200004F095FF039B02370133039358E740
:102810000FB0F0BD201700209E030100FF04000050
:1028200010B5FFF7A9FD85239B00C01810BD00005F
:10283000F0B585B00600039115001F000AF0ECFE0C
:10284000041E25D13000FFF797FDE32303215B0031
:10285000C25A3B040A401B0C8A4212D1232203991C
:10286000009230002A000AF063FE00282DD0184B99
:10287000184900229B5E02007030843209F074FA1D
:1028800023E000912A00039930000AF051FE1CE079
:102890000723427E1340012B0BD00600027EBBB201
:1028A000103693420AD027763A00290030000CF007
:1028B000E8F80321200000F067FF06E03A0031004D
:1028C00028000CF0CFF80028EDD105B0F0BDC046CF
:1028D00098100020002D3101F0B595B006900B91B5
:1028E0000493D37917001A9CFF2B00D0AEE0049B11
:1028F0005B78002B00D0A9E0172C00D8A6E0049B41
:102900001B7AFF2B00D1A1E013000833102250499D
:10291000180005930CF0A6F800280FD0049906982B
:102920000831FFF785FD0A90002800D18EE00025D0
:10293000183C089409952C0007951CE038000D22DE
:10294000444918300CF08EF8002800D17EE0E5E70D
:10295000079E049B18369E193378012B0FD0212B2C
:1029600000D134007378079ADB00D21892B2079234
:10297000089AD31A0893089B002BE9DC0CE0049B0F
:1029800039001A780CAB00930B98330001F0ECF887
:10299000051E5BDB0996E5E70698FFF7EDFC099B52
:1029A000002B3CD0002C3AD0E3235B00C35ADB431E
:1029B0009B0734D1049B39001A780CAB0295019324
:1029C0000094059B069805F043F822000023083286
:1029D0000F21060005F01EF80500002E02D110227E
:1029E000059918E00222237A0EA953400B70637AEE
:1029F00006324B70A37A12A88B70E37ACB70237BDC
:102A00000B71637B4B71A37B8B71E37BCB710CF000
:102A100038F80822104910A80CF033F80BE02B000E
:102A20000CAA05990698FFF703FF1022059910A834
:102A30000CF027F800253B7E0A99FF3B5A42534190
:102A40000095DBB210AA069800F0B4FD15B0F0BDF9
:102A5000AE030100DE0301009E030100F0B51C007F
:102A60008DB00834099121001F0005900892129E34
:102A70000AF0D2FD089BDB79FF2B00D0B6E07D7811
:102A8000002D00D0B2E0172E00D8AFE03B7AFF2B2C
:102A900000D1ABE0002800D1A8E0183E07960695CB
:102AA000079B002B27DD069E1836BE193378022BB4
:102AB0000CD0212B15D100233A7808990293019369
:102AC00000962300059804F0C3FF0AE00AAB3A78A9
:102AD000089900930998330001F08EF8051E00DA7A
:102AE00084E07378069ADB00D21892B20692079AB5
:102AF000D31A0793D4E701210998494201F093FCC6
:102B0000061E00D08668210005980AF085FD041E87
:102B10006CD00723427E1340022B15D1002E05D026
:102B20003378002B02D07378002B38D16B4620000D
:102B30009B8A257663832A000AA910300BF0A1FF37
:102B40003B795B061DD518E0002E05D03378002BAD
:102B500002D07378002B25D10026002D03D1267ECC
:102B6000701E8641F6B23B799B062AD4002E28D0EF
:102B7000002D33D13B795B0601D5072102E0002E01
:102B800003D00321200000F0FFFD3979637E082285
:102B90007F2901D9134300E09343637626E0002D9B
:102BA000C4D123E02E1EDED0237E00269D42DAD043
:102BB00020002A000AA910300BF054FF464246417B
:102BC000D1E7002DD6D06B4620009B8A2576638303
:102BD0002A000AA910300BF054FFCBE7637EDB43D9
:102BE0005B0703D10321200000F0CEFD0DB0F0BD46
:102BF000F0B589B01E000290059114000E9FFFF7FA
:102C0000BBFBE3235B00C35A05009B076DD5E3794B
:102C1000FF2B6AD17378002B67D1072F65D9083F46
:102C200003970493039B002B1FDD049F0837F719BC
:102C30003B78012B0FD106AB327821000093059829
:102C40003B0000F091FF031E4FDB210006AA083174
:102C50000298FFF7EDFD7B78049ADB00D21892B260
:102C60000492039AD31A0393DCE7E3235B00EB5A45
:102C700008345A072FD5DB0701D51D4E00E01D4E45
:102C800006F0B6F82B00F933FF3307001800039362
:102C9000FDF7AEFDE3235B00EB5ADB071BD52100FC
:102CA00002980AF0B9FC002815D0134A134B3100E2
:102CB000EA520233E850124B380000229B5E049324
:102CC00083239B00EB181D000BF0DCFA049B2A0009
:102CD000039809F049F8210002980AF09DFC0028A9
:102CE00003D00822437E9343437609B0F0BDC0462B
:102CF00080841E0020A10700150200000E020000C3
:102D000098100020F0B58FB00B9107921C00059031
:102D1000FFF732FB079B0600083308229C49180086
:102D200006930BF09FFE002800D02FE1079B1B7A33
:102D3000FF2B00D12AE1079BDB79FF2B00D025E197
:102D40006378002B00D021E1149B0F2B00D81DE1EC
:102D5000069905980AF060FC0390031E0BD10B3313
:102D6000009302000300069905980AF0E1FB039026
:102D7000002810D10AE10820039B5B7E034206D0A5
:102D8000E279A17982400A4301D1834301E008221C
:102D90001343039A5376E379A2791B02134300226B
:102DA000049293420ED05BBA9BB20493049A794B7F
:102DB00079491B8851430398039A1BB230321C3067
:102DC00008F0D2FF2379002B02D0E5225200B35441
:102DD000E3225200B35A9B04990CB15263799B09C8
:102DE0009B030B43B352637A217AA57A1B020B43F0
:102DF0002D041A002B00E57A13432D061D4313D032
:102E0000E8277F00F3592DBA9D420DD005F0F0FF61
:102E1000F5510A210BF036FA481D68430A210BF0E0
:102E2000ABF9EA235B00F050627B207BA37B1202AC
:102E300002431B0413431A00E37B1B06134303D016
:102E4000EC221BBA5200B3503000C130FF30FDF706
:102E500085FD149B103B089300230A930993089B5C
:102E6000002B64DD0A9D103565192B78052B1CD0CD
:102E700004D8012B0DD0032B1FD04EE0222B35D0D0
:102E8000232B4AD12B00149A2100059804F098FFB7
:102E900043E00CAB2278079900930B982B0000F0CD
:102EA00063FE0990002838DA70E021782A0005983E
:102EB00000F0DFFE002830D168E021782A00059874
:102EC00000F000FF002861D06A792879AB791202FE
:102ED00002431B0413431A00EB791B0613431BBA6E
:102EE000002B1AD0049A9A4217D915E020782900AD
:102EF00004F0B8FE002849D0EF79AB793F021F43B8
:102F00007FBABFB2002F08D03C2104980BF034F9EF
:102F1000874202D23C237B4304936B780A9ADB00FE
:102F2000D21892B20A92089AD31A089397E7099B8B
:102F300006990CAA0598FFF77BFC3000DD30FF30C6
:102F4000FDF756FCE32301215B00F35A0B421DD031
:102F50000323049A5343042B00D99908CC2300245B
:102F6000FF33F454039804F031FD039B21001A2031
:102F7000185E039B1A0000F0A7FBE3235B00F35AE3
:102F80009B0703D501213000FFF710FA0FB0F0BD09
:102F90009E030100EC02002040420F000723F0B521
:102FA000427E89B004001A40022A01D0052A7DD150
:102FB000270094373D78012D73D904AE022A12D12F
:102FC000802300215B040693FF2339483373049068
:102FD000059121001620637B0E31737302ABC0187C
:102FE0000BF04FFD05E03200230003CB03C203CBFF
:102FF00003C2013D3D701A23E55E002D24D103AFCD
:10300000380001F053F90190019B9D4208D06B00FC
:10301000F85E22003300002100F056FB0135F3E793
:103020002500244B3835280000269E5FFDF7E0FB85
:103030002300214A4E331A80220033004C321F49AC
:10304000280008F091FE31E02800FFF795F907000D
:103050003D00C13522001A23E05EFF353300002118
:1030600000F032FB01212800FDF748FCEC2326008C
:103070005B00FB58383601930E4B30000027DF5FB2
:10308000FDF7B6FB23000C4A4E331A8022003000B5
:103090004C323B00019908F067FE2800FDF75EFC0A
:1030A00004E01A23E05E21000AF0E2FA09B0F0BD64
:1030B000FF020000981000201202000040420F00A2
:1030C0000723427E10B51340042B03D00321072BA6
:1030D00001D002E0052100F057FB10BD70B50600DD
:1030E000C136FF36040001213000FDF707FC05F072
:1030F0007FFEE8230A4D5B00E5500A210BF0C2F881
:10310000481D68430A210BF037F8EA23054A5B00A3
:10311000E05004333000E250FDF720FC70BDC046A3
:1031200080C3C90140420F00F8B5040022780800AE
:103130000023FF2A58D01833002287210AF02CF9E7
:103140000022030090424FD083681A715A719A711D
:10315000DA7162782678A1781202324309041500E8
:103160000A00E1782A430906657927791143A27993
:103170002D023D4312042A431500E279197212060A
:103180002A430D0A5D720D0C090ED972110A1A73C9
:103190005973110C120E99739D72DA73627A257A43
:1031A000A77A12022A433F0411003A00E77A0A4341
:1031B0003F06617B1743267BA27B09023143120441
:1031C0000A431100E27B1F7412060A43390A59743C
:1031D000390C99743F0E110ADF741A755975110C68
:1031E000120E9975DA7503001800F8BDF8B50500E0
:1031F00010000A780C000023FF2A59D0183300224F
:1032000088210AF0C9F8031E52D01F2295430022DC
:1032100083681D71DA719A715A7162782678A17883
:1032200012023243090415000A00E1782A43090614
:10323000657927791143A2792D023D4312042A436F
:103240001500E279197212062A430D0A5D720D0CFF
:10325000090ED972110A1A735973110C120E99734F
:103260009D72DA73627A257AA77A12022A433F04A2
:1032700011003A00E77A0A433F06617B1743267B39
:10328000A27B0902314312040A431100E27B1F743E
:1032900012060A43390A5974390C99743F0E110AFF
:1032A000DF741A755975110C120E9975DA750300D1
:1032B0001800F8BD10B50823002285210AF06CF82B
:1032C000002805D0002283681A715A719A71DA7148
:1032D00010BD10B5002304001000F822C9B2073158
:1032E0000A40190001F072F9002804D082681470B5
:1032F000C368DB08537010BDF8B50F001600911CB1
:103300001A00FFF7E6FF041E0CD0836800219D1C05
:10331000C36828009A1E0BF0BDFB3200390028005C
:103320000BF0AFFB2000F8BD10B513000A00010040
:103330000120FFF7E1FF10BD10B513000A000100E6
:103340000220FFF7D9FF10BDF8B507000E001500E9
:103350001C0000221023862107980AF01DF800287F
:103360001AD03F22836824BA9643220A5A72220C4A
:103370009A72069A6DBA12BA110AADB29D711C7298
:103380002D0A240E1A735973110C120E1F715E71DF
:10339000DD71DC729973DA73F8BDF7B507000E00C2
:1033A00014002021099A03200193FFF792FF051EC4
:1033B00024D03F230021806824BA9E43230A43710E
:1033C000230C8371019B04711BBA1A0A03724272A7
:1033D000240E1A0C1B0EC471827201734173817327
:1033E000C1738770C670C3721030040010220BF0D6
:1033F00051FB3A000899200005F048F92800FEBD6D
:1034000010B50A00040008210520FFF762FF00281C
:103410000BD0002382689370D37023BA190A1371FA
:103420005171190C1B0E9171D37110BD10B5102282
:1034300003490BF017FB43425841C0B210BDC046D0
:10344000AE03010010B50822094904000BF00AFB85
:103450000123002809D022780023FF2A05D16078B3
:103460000F330340023B58424341180010BDC04691
:103470009E03010070B5060008001900FEF7E2FD8A
:10348000051E13D0FF238268D37100231A00190090
:10349000180000F021FF041E04D12900280001F0CB
:1034A000CCF902E083685E804560200070BD10B5F5
:1034B000002101F069F910BDF0B5060085B01000DB
:1034C0000F0014000393FFF7B1FF002801D0002084
:1034D00018E02000FFF7B6FF0028F8D10125227C74
:1034E0002A42F4D13B88607C2B4059425941039BCE
:1034F000C901114301930094A3696269FFF74DFF6D
:103500003060280005B0F0BD7FB50E2402236C4466
:103510000E000093002223000521050000F0C6FCE8
:10352000002802DB2388062B0ED8082300220093F4
:1035300002213300280000F0B9FC002801DB2080C4
:103540000DE0002323800AE00823002200930321DA
:103550003300280000F0AAFC0628E6DDEFE720880B
:1035600004B070BD70B500200AF0A6F8072504006D
:10357000002C0DD0637E2B40013B012B03D9002290
:103580000B4B1A6011E020000AF096F80400EFE7F8
:10359000074D28680AF090F8002804D120000AF0AE
:1035A0008BF8002801D004002860200070BDC046C0
:1035B00050190020F0B5E32685B01F0004000091EB
:1035C0001500FEF7D9FE7600835B9B0701D4002629
:1035D00006E02000FEF7D0FE835B5B07F7D5802670
:1035E0002800FFF723FF002807D0102232492800C7
:1035F0000BF047FA02236B7001E040231E43002FBB
:103600000DD002A92000FFF77FFF002807D0C1B22C
:103610000A9A02A8FFF790FE002810D00A900A9B91
:10362000002B05D0009B1B7CDB0701D420231E430D
:103630000A9A00993000FFF7D9FD071E01D10A98B8
:1036400036E0010000232A002000FFF713FF0600E8
:103650003800002E2CD0009B184F1B7CDB071FD599
:1036600005F0C6FB29000190200009F0D5FF0500F8
:10367000040054352800FDF7BBF82300683300939D
:10368000009A0F4B01985380E6660023FC5E0D49BB
:103690000AF0F8FD2300009A280008F065FB09E015
:1036A0000023F85E310000F0E9FB002802DC300066
:1036B000FFF7FDFE05B0F0BDBE030100981000202D
:1036C0000202000040420F00F0B589B005000E0074
:1036D00003920593FEF750FE0490002E09D13200AC
:1036E00003992800FEF71DFF002706003C00B842A2
:1036F0000ED006A92800FFF707FF00240700A0420C
:1037000006D0C1B2220006A8FFF70EFE041E33D079
:10371000E323049A5B00D35ADB0715D5082F0AD0A0
:10372000082300220093032106AB280000F0BEFB13
:1037300080B2082820D1230006AA0F21002004F01F
:1037400069F9002818D0040021000398FFF7ECFC69
:10375000071E11D001003300059A2800FFF78AFEEA
:1037600004003800002C08D0064B21000020185E11
:1037700000F084FB002802DC2000FFF798FE09B06F
:10378000F0BDC04698100020F7B50722437E040024
:1037900093430B434376052920D0914203D004295B
:1037A0004DD1274E06E01A23C05EFEF7E5FDEA2361
:1037B0005B00C6582500234B383528000027DF5F03
:1037C000FDF716F82300204A4E331A8022003B00F2
:1037D0004C323100280008F0C7FA30E01A23C05EEE
:1037E000FEF7CAFD060023000322350094331A7049
:1037F000C13522001A23E05E00212300FF35FFF7C8
:1038000063FF01212800FDF779F8EC235B00F358F2
:103810002600019338360B4B30000027DF5FFCF7A2
:10382000E7FF2300094A4E331A80220030004C3251
:103830003B00019908F098FA2800FDF78FF8F7BDD2
:10384000404B4C00981000201702000012020000AC
:10385000F0B5070085B00D1E00D11A4D00222900D9
:103860003800FEF75EFE019000280ED002A9380055
:10387000FFF74AFE0024A04208D0C1B2220002A8ED
:10388000FFF752FD041E01D117E0019C2000FFF755
:1038900011FD061E11D00100019B2A003800FFF720
:1038A000E9FD04003000002C08D0074B2100002067
:1038B000185E00F0E3FA002802DC2000FFF7F7FDB5
:1038C00005B0F0BDEE03010098100020F0B58FB0F8
:1038D0000993002305900B9306910792FEF74CFD88
:1038E000079B0700002B01D19B4B07933B00C13383
:1038F000FF33180001210393FDF700F8E3235B0079
:10390000FD5AC63BFF3B1D403C00002D18D13E0038
:10391000B44200D1F4E0627C737C9A4200D0EDE0C6
:103920003100200004F08EFE637C834200D9E5E084
:1039300000E01D00039B3834A342E8D10B9C4DE00E
:1039400004F0FCF9041E49D0002385690493002D7E
:103950002CD06B689F4215D1A669B54200D1E0E03A
:10396000AB68B16808935A7C4B7C9A4200D0EEE079
:10397000089804F067FE089B5B7C834200D9E6E070
:1039800000E004932D68E2E7E8B202F09DFC049E9B
:10399000428A417C0300007C009604F0FFFA0B9001
:1039A000002816D004900135102D09D007220121DE
:1039B0002A409140EB08E3189B7D1942F3D0E3E7DE
:1039C000A18A22002069049B04F00EFB041E0B90C8
:1039D00004D10398FCF7C2FF04988CE0E3235B005A
:1039E000FB5A1B0709D5E4235B00F85A2100FFF7B7
:1039F00007FD0B90002821D00400069B002B0FD15F
:103A00000398FCF7ABFF012207990598FEF789FDA3
:103A1000012106900398FCF771FF069B002B12D042
:103A20000CA90598FFF770FD00280CD0C1B2220048
:103A30000CA8FFF779FC0B90002803D10398FCF742
:103A40008DFF43E00400E3235B00FE5A002308934C
:103A5000F30603D5E5235B00FB5C08930025B30662
:103A60000CD5EA235B00F8583C4B984205D8FA2164
:103A700089000AF081FB050000E0394D0023049322
:103A8000730607D5EC23FA215B00F85889000AF089
:103A900073FB04900026099BB34202D1E6235B002E
:103AA000FE5A0398FCF75AFFE3235B00F95A883B60
:103AB000FF3B09129943049B0194009332002B00B1
:103AC0000898FFF741FC051E0B9001D1200012E081
:103AD0000100069B079A0598FFF7CCFC01000B90AC
:103AE0002800002907D01F4B0020185E00F0C6F9FF
:103AF00000282EDC0B98FFF7DAFC2AE0383607E7BF
:103B00003900C7312B002200FF310BA8FFF7D4FC8E
:103B1000002800D10EE70B9B002B00D009E72800FE
:103B20000FE03900C731049BAA68FF310BA8FFF7EB
:103B3000C3FC002800D125E70B9B002B00D020E719
:103B40000498FFF7B4FC0398FCF708FF01E036681F
:103B500003E70FB0F0BDC046CE03010000A493D62A
:103B600080EE360098100020F8B51E009F1C5B7890
:103B700004001500002B01D116203BE0083108009D
:103B8000FFF754FC0028F7D1002C2ED01023E35669
:103B9000013304D1A3681C78022C04D001E06468CE
:103BA000F2E7082C06D17378012B12D00824022BDF
:103BB00010D0E1E77B35EDB2022D1AD8002C0DD1E3
:103BC0007478E400023C33195B78002B06D1013C89
:103BD000F9E702247B35EDB2022D0AD82200390024
:103BE00006980AF04EFF200005E07B35EDB2022D6D
:103BF000E6D986204042F8BD70B51D005B78040010
:103C00001600002B02D11620404231E00831080096
:103C1000FFF70CFC0028F6D1A91C882E28D1002C17
:103C200015D01023E356013304D1A3681C78022C6D
:103C300004D001E06468F2E7082C06D16B78012B10
:103C400010D00824022B0ED0DDE7002C0BD16C78AD
:103C5000E408023CE4B20B19013B1B78002B02D1B3
:103C6000013CF7E70224220004980AF00AFF200032
:103C700070BDF8B517000D00FEF77EFB7B780600DF
:103C80000024012B1BD11C00862D18D10500C13545
:103C9000FF3519002800FCF731FE7A793879BB79B5
:103CA000120202431B0413431A00FB7928001B066F
:103CB0001343E4221BBA5200B352FCF74FFE20001C
:103CC000F8BD0000F0B5537889B007001400002655
:103CD000042B00D09DE0862900D099E0130010331A
:103CE00018000393FFF7AEFB061E00D090E03800EB
:103CF000FEF742FBE3235B00C35ADB0703D5E378FF
:103D00007F2B00D984E003993800FEF791FB051E54
:103D100003D0427CA3789A4234D062792079A37987
:103D2000120202431B0413431A00E3791B061343D8
:103D300028D01022002104A80AF0ACFEE3785B062C
:103D400015D4A278039904A804F0A0FC3F22E378DC
:103D500004A993433800A278FEF731FB051E58D022
:103D60003800FEF709FB012103F0B4FF0AE0082345
:103D700000220093072106AB380000F097F80028D6
:103D8000DFDA46E062792079A379120202431B044C
:103D900013431A00E3791B06134306D1002D37D0D5
:103DA00029003800FEF730FB32E01BBA6B61617A04
:103DB000267AA27A0902314312040A431100E27AF8
:103DC00012060A4312BAAA61013317D06379267921
:103DD000A2791B023343120418001300E279034353
:103DE00012061A430C4912BA514328002A000B4B01
:103DF00030321B881C301BB207F0B6FF7F222B7CB1
:103E00003F2193431A002B74E3788B4313432B74A5
:103E10000126300009B0F0BD40420F00EC02002046
:103E2000F0B585B006000F0001921D0000F0C6FA43
:103E3000041E1FD03900300000F0AEFA611E0600EB
:103E4000280000F08FFC002E14D06A460823F15E93
:103E5000928802AB18005A800395FDF79FFC00285A
:103E600003DC0021280000F08FFC300000F0BCFAD9
:103E70000600E8E7200005B0F0BD000007B56A467F
:103E8000034B0191010068465380FDF787FC0EBD8E
:103E90000202000007B56A46034B01910100684623
:103EA0005380FDF77BFC0EBD0102000010B588B009
:103EB00005AC6280812206930A9B9200238101ABAC
:103EC00021705A8003A9020018000294FDF786FCB5
:103ED000049808B010BD000010B588B005AC06937A
:103EE0000A9B6280064A238101AB21705A8003A994
:103EF000020018000294FDF771FC049808B010BD90
:103F0000030200006823F0B5846893B006000D003A
:103F1000608D218F0AAA0B401080002D01D1162040
:103F200062E01022AA5601325BD13F22A8680779CD
:103F300097430278002F04D081273B430793002347
:103F400005E001271F43130008330797C3180893A0
:103F5000002A02D00100083108E04B0703D52100F8
:103F600008222E3102E0210002222C312700407865
:103F7000363709903878431C3B70079B04900393B5
:103F80000AA8008802AF388001AF3880099B0CA8CE
:103F90000093089B04F0A8F9071EC0D028000BA9C5
:103FA00000F02AFC051E1ED081680CAB0B606B462E
:103FB0001B7F4F605BB2B268002B03DA13690133D9
:103FC000136102E0D3680133D36023680B9A1B6846
:103FD0002000984704000021280000F0D5FB2000B5
:103FE00003E04D2000E06920404213B0F0BD000026
:103FF000F0B587688BB03B6838005C6800231A0016
:104000001900A047041E15DD002302001900180046
:1040100000F0DCFA051E0DD03B6881685E68220066
:1040200004AB3800B0470290002805DC00212800CE
:1040300000F0AAFB002468E002233E8F1E405FD1FF
:10404000A86804F0DFF90400011E3BD0029B0100C8
:104050001B1A32002800029300F0D4FA0190011ECE
:10406000E5D0019B05AA9C6808A9200004F032FA5B
:1040700005AA039006A9200004F0EBF9039B002B8E
:1040800001DA00241DE00028FBDB6B46C1B21B7B7C
:1040900008AA06A800F020F9061EF2D0039B04002F
:1040A000022B0CD108AB1A78FF2A08D15B78FF2BC2
:1040B00005D180218268494213790B431371002E88
:1040C00004D10021280000F05FFB1EE004AAB368C1
:1040D000527828379A7104AA127801995A710C4AB9
:1040E000280012885A803B782B7400F0A6FB00232E
:1040F00073602B005A68002A01D01300FAE75E6053
:104100000299280000F0F0FA2C0020000BB0F0BD5E
:10411000EC020020034B81600360034B43600020EE
:104120007047C046053F0000F13F0000F0B50500B4
:10413000234E95B0338884688381082104A8FDF755
:104140009DFB204B30886360A56000B200F09AF8B8
:10415000236820009B6881269847B6006846FDF7D3
:1041600088FB6B46184A5B88934212D007D8174ADF
:104170009342F3D1019928002B689847EEE7B342A8
:104180000DD0134A9342E9D123682000DB68984799
:10419000E4E7019A206813891178476904E0019ADD
:1041A000206813891178076952682000B84702A96E
:1041B000084B486068464B80FDF730FBCEE7C046B1
:1041C000EC020020D94100000302000002020000BE
:1041D000341200000502000013B5030080680029B6
:1041E0000ED16A46164B019053800C23C15E68467F
:1041F000FDF7B4FA002821DC12480AF07BFD1DE02F
:10420000042918D0062912D0022917D143689847EB
:10421000041E13D010200C49205623000B4AFFF730
:10422000FFFD011E0AD1200000F0AEFA06E09A69F7
:1042300001329A6102E05A6901325A6113BDC046E7
:1042400034120000120201000000FFFF0102000012
:1042500030B585B0089C002C0DD0A568002D0AD083
:104260000293074B019400930823FCF709FC0028F4
:1042700003DC162000E01320404205B030BDC046EC
:104280002D410000084B10B500229C5EA04201D1D8
:10429000002008E0002C02D00C20404203E01880EF
:1042A000FEF73EF8200010BD54190020044B0022F8
:1042B0009A5E00239A4201D00280013318007047B1
:1042C00054190020034B00229B5E181A43425841A8
:1042D000C0B2704754190020F7B501921A00083295
:1042E00052180E001D000021012307005B42080048
:1042F00000F06CF900220400904222D083681E7006
:104300005D705A805A719A711A71974209D096421B
:1043100007D080680278B24203D1083039000AF031
:10432000B0FB019B002B0CD0002D0AD0A268537863
:10433000AB4206D1137801990833D0182A000AF04D
:10434000A0FB2000FEBD0000C3B2042B06D8054B25
:104350008000C2580A60C150002001E0162040428F
:104360007047C04658190020C3B2042B10D8094A20
:10437000800083588B4205D11B68835008E091422E
:1043800004D013001A68002AF9D101E00A681A6003
:104390007047C04658190020C2B203000020042A0A
:1043A00009D8054A9B009858002804D043688B42DE
:1043B00001D00068F8E7704758190020C2B230B544
:1043C0000023042A0BD8074A80008058002806D012
:1043D00042680068521A554255415B19F6E71800C9
:1043E00030BDC04658190020031E07D005CB002859
:1043F00004D043689A4201D00068F8E7704710B5CE
:1044000000290BD01023C356032B04D0042B07D153
:1044100003F014FF06E008F0D0FF03E0162000E0F0
:104420000220404210BD002805D01023C3568B4205
:1044300001D04068F7E7704710B5134C0822236895
:10444000072803D9053A0330904302000021002BCE
:1044500018D05868824202D919001B68F7E7801A01
:10446000072806D81A68002901D122600AE00A60EC
:1044700008E09A18002901D1226000E00A6019685A
:1044800050601160180010BD6C1900201B4B1C4AB5
:1044900010B5C31A934230D800231A4C2268002A60
:1044A00004D0824202D213001268F8E702600822A8
:1044B000072903D9053A033191430A004260002BD2
:1044C00001D120600BE0596818605918411A07297A
:1044D00005D80168C01A8218180019605A6003686C
:1044E000002B0AD0426882189A1A072A05D81A683F
:1044F00002601A1A5B689B18436010BD7019002097
:10450000FF1700006C190020F7B5009014200F0071
:1045100016000193FFF790FF041E1CD03000FFF738
:104520008BFF051E05D120001421FFF7AFFF2800E7
:1045300011E0009BA06063606B461B79E66023740A
:10454000012320002360002F05D03200390028000D
:104550000AF097FA2000FEBD70B50400002C12D0BE
:1045600023686568012B0AD10023E168A0682360F5
:10457000FFF78CFF14212000FFF788FF01E0013BCB
:1045800023602C00EAE770BD10B501210148FCF75B
:10459000B5F910BD7031002010B5FFF7F5FF084BDD
:1045A000084A18211360002259711A705A709A70C3
:1045B000DA701A719A71DA710348FCF7CFF910BDFD
:1045C000701900206C19002070310020F8B51F0010
:1045D0000A4B1400013A05000E0000209A420CD844
:1045E000FFF7D2FF22003B0031002800FFF78CFFCD
:1045F00004000348FCF7B2F92000F8BDFF170000E3
:1046000070310020F7B504000E0001920827072939
:1046100003D90322CB1C93431F00FFF7B5FF002EE5
:1046200007D0002C05D0E3689E4202D8A268002A79
:1046300004D12C48FCF792F9002052E09E4207D1A9
:104640006B461B7927482374FCF788F9200048E063
:104650001420FFF7F1FE051EEBD0B74203D8E36844
:104660009B1B072B29D83000FFF7E6FE071E02D15F
:10467000142128000CE0E368981BFFF7DDFE009092
:10468000002808D114212800FFF700FF310038006E
:10469000FFF7FCFECDE73200A16838000AF0F1F91F
:1046A000E36800989A1BA36899190AF0EAF9E1688F
:1046B000A068FFF7EBFE009B01E0A768BB19A360B1
:1046C000E36808489B1BE3606368AF606B606B4600
:1046D0001B79EE602B7401232B606560FCF73EF9BB
:1046E0002800FEBD70310020F8B505000C0008263A
:1046F000072902D90323CE1C9E43FFF745FF184F1D
:10470000002C04D13800FCF729F90C2027E0EB68D5
:104710009C4220D002D8991B072912D82000FFF70D
:104720008BFE061EEED0EA68A24200D92200A968DC
:1047300030000AF0A6F9E968A868FFF7A7FEAE60A6
:1047400008E00322033393439E4203D2AB689819D7
:10475000FFF79CFEEC603800FCF700F90020F8BD84
:104760007031002070B504000D00FFF70DFF002C24
:1047700004D023685B1923606468F8E70148FCF7FC
:10478000EDF870BD7031002010B50400FFF7FCFE9D
:104790002000FFF7E1FE0248FCF7E0F810BDC0463C
:1047A0007031002070B50400FFF7EEFE114D002CB3
:1047B00002D0E268002A04D12800FCF7CFF80020DC
:1047C00016E02368012B0FD91023A168E356606817
:1047D000FFF79AFE061E02D02368013B23602800E3
:1047E000FCF7BCF8300003E02800FCF7B7F8200025
:1047F00070BDC0467031002070B500260D00040069
:104800000100B04202D10020286015E0496801365D
:104810000029FBD10223F2005B422000FFF7D6FE05
:104820000028F0D08368A2681A60E26864685A6061
:104830000833002CF7D12E6070BD10B504000800BD
:1048400023008C4204D1646808E0904204D0130035
:104850005A68002AF9D101E042685A60002141609B
:10486000FFF792FF200010BD70B5556804000800E6
:10487000291E15D04B68002B01D01900FAE74368B8
:1048800053602300A04206D05E68002E04D0B042E0
:1048900014D03300F8E7140053684B60556010E003
:1048A000436853602300A04206D05968002908D00D
:1048B000884205D00B00F8E7140002E05A60EBE7ED
:1048C0005A6000214160FFF75FFF200070BD0000CB
:1048D000F8B50026070004003500002C46D029005A
:1048E000E26827480AF08AF910216156481C052819
:1048F0002ED809F023FC06030F182025002121489B
:1049000027E00121204849420AF078F9A06808F020
:10491000BDFF26E001211D480AF070F9E168A0689A
:1049200006F084FF1DE0022119480AF067F9A0682B
:1049300003F0FCFF15E0032116480AF05FF910E0D0
:10494000042115480AF05AF9A06807F0ABF908E00D
:1049500012480AF053F9124B1022E168A06804F0E3
:1049600041F8E3680135F6186468B6E732002900BB
:104970000C480AF043F938002100FFF705FFF8BDA5
:10498000390201005E02010072020100860201008C
:104990009E020100B1020100C6020100D80201001E
:1049A00010420000EE02010010B594B0082104A8E6
:1049B000FCF764FF862302AC5B426360104B6380AC
:1049C0006846FCF756FF6B4658880E4BC018032804
:1049D00011D809F0B3FB02040B0B0B4800E00B48A5
:1049E0000AF088F90198FFF773FFE9E721006846AC
:1049F000FCF714FFE4E706480AF07CF9E0E7C0465C
:104A000005020000FFFDFFFF1B030100330301004F
:104A10004A0301001FB50B4C0022A35E002B0CD1F2
:104A2000C021094A0193094B0292009306220823F0
:104A3000C9000748FCF724F820800023E05E04B09A
:104A400010BDC0467431002071030100A949000067
:104A50007631002013B501AC2000FFF727FC0023BE
:104A6000E05E00F00FF913BDF0B5082189B077487A
:104A7000FCF704FF764B06AD6B8004AC2000FCF71E
:104A8000F8FE812263889200934208D8714A9342CB
:104A900000D3D2E0704A934200D18EE0EDE76F4A36
:104AA000934274D06E4A93427CD0023A9342E4D14E
:104AB0000120FCF79BFA6B4909F05EFB06006A4B8C
:104AC0005C1D95330393631E1B78002B19D02300C4
:104AD00017331B689B1B022B0ADC230013331F6850
:104AE000601F01F03FF80021380001F0C9F808E02C
:104AF000042B06DC230013331B682100986900F0A7
:104B0000D3FA039B30349C42DDD1584843780200ED
:104B1000002B33D001000023B431CB56002B1FDC17
:104B2000140037342378022B17D81700353739781B
:104B3000002923D1160034363378032B04D93C23C3
:104B400031702370397019E00133337029321278D3
:104B5000006A00F08DFD032300E0023B23700DE0AE
:104B6000C469002CDCD1068E414CA642D8D1023B50
:104B70005BB20B70002BD3DC01F04CF83D4B3E498F
:104B800000229B5E3D483E4A07F0EEF875E76068FC
:104B9000002800D171E74369002B00D16DE707F0D1
:104BA00002F86AE76068002800D166E74369002BD5
:104BB00000D162E706F0ECFF5FE76768022138008A
:104BC000FFF731FC0121040049423800FFF72BFCBC
:104BD000011E02D083680221595EBE68A268707807
:104BE000032825D854791379240204361C4309F08C
:104BF000A5FA020C131A130064BAA4B218330832CF
:104C00000094300000F076FA12E063BA9BB20832EA
:104C1000300000F08FFB0BE063BA9BB2083230002B
:104C200000F059FE04E062BA92B2300000F095FE46
:104C300000213800FFF7A8FD1FE7862329005B420B
:104C400020006B60FCF7EAFD17E7C04678370020CC
:104C5000050200000302000001020000010900003B
:104C60000209000040420F00C8370020783C0020B5
:104C7000FFFF00007637002080841E00603800208F
:104C8000280200207FB51B4C05000022A35E002BEC
:104C900020D18021184AC9001370184A0193184B7B
:104CA00002920093052208231648FBF7E9FE2080B4
:104CB00000281CD09B221449088103204A60FFF77A
:104CC00043FB00F077FE0022A35E1049104A114812
:104CD00007F04AF8104E0023802231002800FDF72B
:104CE0006EFB0020310000F0DFF90023E05E04B02D
:104CF00070BDC04676370020583800208903010077
:104D0000694A000074380020B837002080841E00F3
:104D100028020020603800207903010003000522EA
:104D20002F331A70020000232C322D3013700370C1
:104D3000704703003C222F331A70020000232C32EC
:104D40002D3013700370704770B50B4D04000121B6
:104D50002800FBF7D3FD094B1878421C1A70002C71
:104D600002D08023184301E07F231840040028006C
:104D7000FBF7F4FD200070BD5C380020583800209F
:104D80007FB50C00002A02D01800FFF7DDFF2100DC
:104D9000022201F023F8041E2DD001220021431D20
:104DA000DA771425831DD977C31D0320DD77210011
:104DB0009B18D8773C230A2628314B703A3B0E705B
:104DC0006385EE338B7123002F331A70DA708023E2
:104DD00022005B00238636321378103103431370B0
:104DE000064B074A0020185E08230296009301959F
:104DF000044B06F010FF200004B070BD7637002091
:104E0000010900000209000010B50021FFF7BCFCF9
:104E100010BD030040B24AB2002808DA00208242E6
:104E200018DA8B420CD25A1A8032013006E0012087
:104E3000002A0FDB8B4203D25A1A80320F2A07DD79
:104E400000208B4204D90F225B1AD90F9A424841A5
:104E50000123184070470000F8B507000C0015004A
:104E60001E00002907D120001749FDF701FB041E91
:104E700001D1380024E0002D05D114492000FDF7B0
:104E800031FB051EF5D0002E00D10F4E3200290057
:104E90003800FDF7D7F8061EEBD000231A001900E2
:104EA0001800FFF719FA836805005C80084A46601D
:104EB000030008490220FEF7B3FF002802D12800B2
:104EC000FFF7A2FFF8BDC046790301009E03010071
:104ED000020200000000FFFF002370B510220D0049
:104EE00019000600FFF772FB041E03D13000FFF724
:104EF0008BFF30E00422002183681A700A325A7056
:104F00009970AA7FDA70EA7F1A716A1CD27F5A718F
:104F1000AA69B232128852BA92B29A71120ADA713E
:104F2000AA69B032128852BA92B21A72120A5A722E
:104F3000AA69AC3212681288197352BA92B29A7284
:104F4000120ADA72AA1CD27F5A736A8C52BA92B2CF
:104F50009A73120ADA73200070BD002370B5202204
:104F60000E0019000400FFF731FB051E03D12000DD
:104F7000FFF74AFF29E008230021806803701633F9
:104F800043702233C37033691A7D02715A7D4271B6
:104F90009A7D8271DA7DC2711A7E02725A7E4272E5
:104FA0009A7E8272DA7EC2725B7C01738370417377
:104FB0008173C17310300400102209F06BFD336956
:104FC00031005A7C200003F061FB280070BDF0B571
:104FD00085B0041E039165D006000700363633788D
:104FE000083700259B0705D528003900FFF7B5FFD6
:104FF000051E57D001223378134209D0280039000A
:10500000FFF76AFF051E4DD00122337893433370BA
:105010000023182219002800FFF7D8FA06002800FC
:10502000002E35D02378B068037023002E331B7810
:105030004370230032331B78022B02D1033B837071
:1050400004E0238E5BBA9BB283701B0AC3702300FB
:105050002F331B780025DA012300A8331B78390091
:10506000DB001343A21DD27F13430371631DDB7F5B
:10507000102243718571C571083009F002FD0423C7
:1050800001229B21300008F087F9A84203D13000AB
:10509000FFF7BAFE06E02C23E15E0097039B2A008F
:1050A000FFF7DAFE05B0F0BD7FB5042205000E0063
:1050B00003A80F4909F0E5FC00220A239B211000F8
:1050C00008F06AF9041E12D00023806804220371DC
:1050D000437103A9063009F0D4FC2B1E00D008331D
:1050E00000220093110033002000FFF7B5FE7FBDC2
:1050F0008D03010010B502A9098805291AD91B786A
:105100000D48FF2B0AD14378002B13D0323003789F
:10511000022B0FD0094806F0ACFD0BE04378002BC2
:1051200008D004000121363423780B43237011008A
:10513000FFF74DFF10BDC046783C0020B03C00207A
:10514000F0B500278DB0139E0D0037601400089352
:1051500000F0C7FE0990B84200D1E6E00697079735
:10516000089B079A934200D8DFE02078082800D9EE
:10517000D3E008F0E3FF050FD2D21485A9D259007D
:1051800001233268013413433360079B01339BB220
:105190000793E5E70223326813433360BDE0102331
:1051A0003268012113432A003360363213782F000E
:1051B0000B431370E07AA37A0002184340BA80B21E
:1051C00000F000FCAC37002801D100F0FBFB386098
:1051D000E178EB1DD97720790133D87762792033D4
:1051E0001A70E379A7791B023B432F005BBAB237F1
:1051F0003B80637A277A1B023B432F005BBAB037B0
:105200003B802B00677B29331F70E37BA77B1B024E
:105210003B435BBA6B8501238340EB632B0039333F
:105220001970013B1A7078E0802332685B001343E9
:105230002A0002213360363213780B4313702C237B
:10524000E85E08230022009305310AABFEF72EFE2C
:10525000002803DA4022E37813425ED020000822BF
:105260000AA9183009F00DFC21002C23E85EA27871
:1052700000231031FDF7A3F800284ED0A8614CE0C0
:105280002023326813433360069B002B00D1069421
:10529000E3780020802B00D818062C23E95E2B0031
:1052A00029331F786B8D00907B43FA27BF007B4327
:1052B00004930123129F03930F33221D029301973E
:1052C0001B4807F045FD28E04023326810271343B0
:1052D0003360069B002B02D1002306931DE0069B42
:1052E0006279191D6B8D00975343FA229200534344
:1052F00002930223E3561022DB43DB0F01930C4899
:10530000129B07F0A5FD069B069A5B780233D31823
:1053100006931B78052BE2D0DEE76378079A023309
:10532000D21892B20792E4181AE709980DB0F0BDAE
:1053300064100020F0B500278FB004000D00059226
:105340000B971B2B00D84CE11C3B9BB200780BA9A0
:10535000089300F057FB002800D18CE0E378A27896
:105360001B0213435BBAA04A9BB2934200D135E1C2
:105370000B9E237932009B065B0FA8321370380016
:1053800000F020FBAC363060002D04D12800974996
:10539000FDF76EF8050021002A00002308310B9864
:1053A00000F062FB0B9D00232E0008360CAA059925
:1053B00030000C9300F088FB002803D10C9B002BDD
:1053C00000D10BE12B0062782E331A702A0023796A
:1053D0002F32DB091370072322790B991340AA1D82
:1053E000D377E378A2781B0213430C9A5BBAD3827B
:1053F000002322000D930DAB0193059B18320093FF
:105400000120089BFFF79CFE002800D1E6E0102455
:105410000D9B1C4007D10B9800F0FCFB0599200068
:10542000FFF742FEDDE0AB69002B08D12C23E85EDC
:105430003100FDF757F8002800D1CFE0A861300017
:10544000FFF76CFC6A4B29000020185E2B00283304
:105450001B7807350293EB7F383101930123F27FEC
:105460009340644A0093644B06F0D5FB0C993000DE
:1054700000F006FCB5E00B9D002D00D1B1E02F003F
:105480002100083710220831380009F0EBFA0690A5
:10549000002800D0A5E00B9A2379A83212789B0649
:1054A0005B0F9A4200D09CE02B002E336678079366
:1054B0001B78300019000993FFF7ABFC00281DD0C2
:1054C0002B0032331B78012B12D173B2002B03DA7D
:1054D000069BFF2E03D104E0069B7F2E01D00136F0
:1054E000F3B22800079A3830137006F0C2FB0BE0C5
:1054F000079B38001E7000F09DFB05E03100099805
:10550000FFF787FC00283ED12B0032331B78012B9C
:105510000DD12800E378A2781B0213435BBA324A0C
:105520009BB23830934230D006F0B7FB59E00023ED
:105530000CAA059938000C9300F0C6FA0C9B0028C1
:1055400001D1002B4DD0002B03D02800383006F0BD
:10555000A4FBE378A2781B0213430C995BBACB82BD
:10556000380000F08DFB0C9B1A79002A10D1E378EB
:10557000A2781B0213435BBA1B4A9BB2934230D101
:105580002A8E9A422DD02800383006F072FB28E08F
:10559000EA69934225D15A7D63799A4202D0380054
:1055A000FFF7BCFB63790C9A0B9953752A0023799A
:1055B0002F32DB0913700723227906351340EB776E
:1055C000002322000D930DAB0193059B183200932D
:1055D0000120089BFFF7B4FD002802D10B9800F0D2
:1055E00019FB0FB0F0BDC046FFFF000079030100BA
:1055F000763700200109000002090000F8B50023F9
:105600000D001600190014220700FEF7DFFF041E2C
:1056100003D13800FFF7F8FB0CE005238068102267
:1056200003700D3343700023C6708370290004306B
:1056300009F027FA2000F8BDF8B500230E00150088
:10564000190006220700FEF7C1FF041E03D138002F
:10565000FFF7DAFB0AE006228368ED011A70023ACE
:105660005A7000229D70DA701A715E712000F8BDC8
:10567000F0B58FB0051E0891099200D1EAE0030051
:1056800032331B78012B00D1E4E0002905D1C36936
:10569000002B00D1DEE0053308932B0000240833F3
:1056A00019000DA806930B940C940D94FCF7F8FECA
:1056B0000D9BA34200D1CDE02600270001216648C2
:1056C000FBF71CF903940594644A93689E426DD2DB
:1056D00014687301E418A368E268134364D00122DC
:1056E000A36913420FD10CAB0493059B002B1CD173
:1056F00009991800FFF7A0FF0C90002813D1564815
:10570000FBF72CF9A6E00BAB0493039B002B0CD109
:105710001A0009991800FFF78FFF071E0B90EED0B3
:105720000123039301E00123059363690793023387
:105730000293079B9B78FF2B08D1029B58780F237D
:1057400018400E3842424241D0B220E0082244497B
:10575000029809F087F9002801D1002017E0079B83
:105760009B78FF2B05D10F22029B5B781340022B05
:10577000F3D010223B49029809F074F90028ECD0CC
:1057800010223949029809F06DF9431E984100280A
:105790000AD0049B22691868120E0299FFF72EFFA7
:1057A000049B18600028AAD001368DE72A48FBF731
:1057B000D5F80C9B002F01D07B6000E00B9380227A
:1057C0000D990B98FFF71AFF041E0B9042D000268C
:1057D000AE57002E08DA002310220699FEF7F6FED7
:1057E0000C9000282AD00B9000230B9F0422190054
:1057F0003800FEF7EBFE04000C903800002C1ED0A1
:105800002A78A3680B941A704022002E00DB002235
:1058100080215A705A7849420A435A702A00002659
:10582000333212781C31DA709E7002220423FF3169
:10583000200007F0B1FD0C90B04203D12000FFF72B
:10584000E3FA07E02C23E95E069B32000093089BF5
:10585000FFF702FB0FB0F0BD7010002064100020B5
:105860009E030100AE030100FE030100F0B587B006
:10587000051E049105922CD00027C7570823002F3E
:1058800000DA103303229B21002007F085FD061E5D
:105890001FD02B78846823712B0008330393002FCB
:1058A00008DA80232000637110220399083009F080
:1058B000E8F801E0002363716B4600221B7DE27172
:1058C000A3712C23E95E039B30000093049BFFF738
:1058D000C3FA07B0F0BDF0B587B0039242781C0060
:1058E00005000823520600D510339C4233D3287894
:1058F00000F0ACF8061E2ED037006B78291D083753
:105900005B0601D4083C08E01022380009F0AAF830
:10591000002820D12900183C14313200323212788C
:10592000A3B2022A17D00022059205AA0192039A77
:10593000022000920A003100FFF702FC00280AD082
:105940006B787F2B04D9EA7803993000FFF78EFF3C
:105950003800FFF7E3F907B0F0BD70B541780500F6
:1059600008237F2900D910339A4221D1287800F0EA
:105970006DF8041E1CD026006B7808367F2B03D8E8
:10598000EB78002B08D10DE0291D1022300009F022
:1059900069F80028F4D00BE023003333AA781B7891
:1059A0009A4205D10123353423703000FFF7C1F945
:1059B00070BD000010B500F0F3FA014B186010BD87
:1059C000303D0020064A0300106810B5002802D1BF
:1059D00000F0E6FA03E002889A4200D0002010BDF1
:1059E000303D0020030010B532331B78022B03D169
:1059F000383006F034F902E00149FFF7E8FA10BD4B
:105A000079030100002310B50F4A0B6004005078A1
:105A1000984201D10A6005E01078A04202D10A60E4
:105A2000180010E00B68181E0DD001201C700B68C8
:105A3000002258700B6880241900B2310A8064007B
:105A400002390C80DA6110BD783C00200022054B41
:105A50005978914203D01978814200D11A00100080
:105A60007047C046783C0020F8B5070008370400AE
:105A70001600380010221D0009F003F8012314223B
:105A80005B4223860F4B2465E364E31DDA7703232F
:105A9000FB7723000A3A28331A7032325A700223F5
:105AA00022006385F0210023323213705170621D91
:105AB000D37730321370013A13700120A685A561A7
:105AC0002462F8BDE55900000023F7B50600140074
:105AD00013601F00214D0133019100936B1E1B7851
